:020000040000FA
:1000000040D90720C5010000CD010000CF0100004C
:10001000D1010000D3010000D50100000000000064
:10002000000000000000000000000000D7010000F8
:10003000D901000000000000DB0100002565000080
:10004000DF010000DF010000DF010000DF01000030
:10005000DF010000996600007D670000DF010000FD
:1000600041680000DF010000DF010000DF01000047
:10007000DF010000DF010000DF010000DF01000000
:10008000DF01000025590000D1120000FD12000020
:100090002913000055130000DF010000090C0000C7
:1000A00055710000DF010000DF010000DF010000EA
:1000B000DF010000DF010000DF010000DF010000C0
:1000C000DF010000DF010000DF01000000F002F8A6
:1000D00000F069F80AA090E8000C82448344AAF179
:1000E0000107DA4501D100F05EF8AFF2090EBAE877
:1000F0000F0013F0010F18BFFB1A43F0010318475C
:1001000028FB010058FB010010F8013B0A4413F0E2
:10011000030408BF10F8014B1D1108BF10F8015B64
:10012000641E05D010F8016B641E01F8016BF9D153
:10013000002D15D010F8014B03F00C030C2BA1EB94
:1001400004040ABF10F8013BA4EB8314A4EB0324BE
:1001500005F1010314F8016B5B1E01F8016BF9D581
:10016000914238BF10F8013BD1D3704700230024DF
:1001700000250026103A28BF78C1FBD8520728BFB7
:1001800030C148BF0B607047642900F0B980632913
:1001900000F02784732900F02C84002070471FB5DD
:1001A0001FBD10B510BD00F0B2FC1146FFF7F7FF00
:1001B0000BF06AF800F0D0FC03B4FFF7F2FF03BCC9
:1001C00000F07CFC0948804709480047FEE7FEE74D
:1001D000FEE7FEE7FEE7FEE7FEE7FEE7FEE7FEE7F7
:1001E00004480549034A054B70470000716500004B
:1001F000CD00000040D7072040D9072040D7072076
:100200000FB41CB5084B06AA7B44694600900598BC
:1002100000F0C5FB04460020694600F0D3FB2046F1
:100220001CBC5DF814FB0000B907000070B5044663
:1002300085690068C10601D5302600E02026C00788
:1002400007D070BDD4E9012130469047206A401C98
:1002500020626D1EF6D570BD70B5044685690078C4
:10026000C00707D170BDD4E9012120209047206A42
:10027000401C20626D1EF6D570BD70B50C4605465B
:10028000012A05D02878800600D5EA69002302E01B
:10029000012305E05B1C934202D2E05C0028F9D107
:1002A000A869E618C01AA861286A18442862284676
:1002B000FFF7BCFF04E0D5E9012114F8010B9047DA
:1002C000B442F8D32846FFF7C7FF70BD014A00F0DB
:1002D00095BB000078C60720401ECAB210F8011F67
:1002E0008A4202D00029F9D1002070477047704738
:1002F0007047000000487047DCD60720FFFFFFFF73
:100300002DE9F0410646002410687529314616A5EE
:1003100010D0AFF30080002802DA404213A507E0B6
:1003200031688A0701D512A502E0490704D511A555
:10033000012401E0AFF3008000210A2206F1240726
:1003400009E0B0FBF2FCB0FBF2F302FB1C00303022
:1003500078541846491C0028F3D123462A463046D3
:10036000BDE8F04100F0BDBA000000002D00000023
:100370002B000000200000002DE9F05F89460446B4
:100380004FF0000ADFF824B1FB44C0F820A020465B
:10039000E168884700287DD0252806D0D4E90121CE
:1003A0009047206A401C2062F1E700255F46204606
:1003B000E16888472028064607DB312E05D2B819A8
:1003C00010F8200C08B10543F1E7A80701D525F086
:1003D0000405C4F81CA00027C4F818A02A2E09D0D0
:1003E000304607F049FB38B304EB8708303EC8F8C5
:1003F000186019E059F8041B204604EB870291614C
:10040000E1688847012F064618D1E069002820DA04
:1004100025F020051DE0D8F8180000EB800006EB61
:1004200040003038C8F818002046E1688847064682
:1004300007F022FB0028EED1012F0AD02E2E08D182
:100440002046E16888477F1C0646022F45F02005BC
:10045000C4DBA069002803DA404245F00105A06131
:10046000E80701D025F01005A6B1A6F14100192832
:1004700002D8203645F400654A46314620462560BC
:100480004D46FFF781FE60B1012807D0ED1D25F034
:10049000070000E007E000F1080978E705F104092A
:1004A00075E730467AE7206ABDE8F09FD2F3010095
:1004B00030B505460B462A4613F8014B12F8010BDE
:1004C00008B1A042F8D01CB1002802D06D1CF1E7A1
:1004D000284630BD40EA0103024630B59B0710D1E3
:1004E0004FF0013400E008C208C91D1B9D4315EA06
:1004F000C41FF8D013F0FF0102F8011B0DD01B0A36
:10050000F8E711F8013B002B02F8013B05D011F888
:10051000013B002B02F8013BF3D130BD10B5431C69
:1005200002E010F8011B71B18107FAD14FF00132DE
:1005300002C88C1A8C4314EAC211F9D0C01A0A06F8
:1005400003D0C01E10BDC01A10BD0A0401D0801E09
:1005500010BD0902FCD0401E10BD40EA010370B579
:100560009B072ED14FF00136042A2AD308C810C9A0
:100570009D1B9D43121F15EAC61517D0D8B2E1B2D4
:10058000401A50EA056110D198B2A1B2401A50EA5F
:1005900005410AD123F07F4024F07F41401A50EA00
:1005A000052102D1180EA0EB146070BDA342DBD070
:1005B00018BA21BA884201D9012070BD4FF0FF302E
:1005C00070BD0AB9002070BD10F8013B11F8014B55
:1005D00063B1A3420AD1521E08D010F8013B11F8B2
:1005E000014B1BB1A34201D1521EEDD1181B70BDAE
:1005F000032A40F2308010F0030C00F0158011F84F
:10060000013BBCF1020F624498BF11F801CB00F826
:10061000013B38BF11F8013BA2F1040298BF00F87A
:1006200001CB38BF00F8013B11F0030300F06780F5
:10063000083AC0F0088051F8043B083A51F804CB5E
:10064000A0E80810F5E7121D5CBF51F8043B40F824
:10065000043BAFF30080D20724BF11F8013B11F82F
:1006600001CB48BF11F8012B24BF00F8013B00F873
:1006700001CB48BF00F8012B7047431A28BF9A42AC
:100680007FF6B6AF032A1044114440F2268010F0E2
:10069000030F1EBF11F8013D521E00F8013D10F07E
:1006A000030F7FF4F6AF11F0030300F0DC81083A8A
:1006B000C0F00B8051F8043D083A51F804CD40F8E1
:1006C000043D40F804CDFFF7F3BF121D5CBF51F8A5
:1006D000043D40F8043DAFF30080D20724BF11F879
:1006E000013D11F801CD48BF11F8012C24BF00F8DD
:1006F000013D00F801CD48BF00F8012C704710B54E
:10070000203AC0F00B80B1E81850203AA0E8185009
:10071000B1E81850A0E81850BFF4F5AF5FEA027CCA
:1007200024BFB1E81850A0E8185044BF18C918C039
:10073000BDE810405FEA827C24BF51F8043B40F8DA
:10074000043B08BF7047D20728BF31F8023B48BFBF
:1007500011F8012B28BF20F8023B48BF00F8012BFD
:1007600070474FF000020429C0F0128010F0030C13
:1007700000F01B80CCF1040CBCF1020F18BF00F894
:10078000012BA8BF20F8022BA1EB0C0100F00DB843
:100790005FEAC17C24BF00F8012B00F8012B48BFA1
:1007A00000F8012B70474FF0000200B51346944645
:1007B0009646203922BFA0E80C50A0E80C50B1F1B9
:1007C0002001BFF4F7AF090728BFA0E80C5048BFCD
:1007D0000CC05DF804EB890028BF40F8042B08BF6B
:1007E000704748BF20F8022B11F0804F18BF00F867
:1007F000012B704710B5044610F0030F08BF11F02D
:10080000030F40F015804FF0013E121FC0F20E8022
:1008100051F8043BA3EB0E0C2CEA030C1CEACE1C93
:1008200008BF40F8043BF0D0A1F1040102F104023A
:10083000521E08DB11F8013B002B00F8013BF7D1F9
:100840001146FFF78EFF204610BD00004FF0013C1F
:1008500050F8042B51F8043B9A4221D1A2EB0C032F
:10086000934313EACC1317D150F8042B51F8043BEF
:100870009A4215D1A2EB0C03934313EACC130BD18C
:1008800050F8042B51F8043B9A4209D1A2EB0C0317
:10089000934313EACC13DBD04FF00000704700BF46
:1008A000D01A01BAB1FA81F101F0180122FA01F06F
:1008B000CB40C1F12001DBB2C0B2C01A2CFA01F367
:1008C000D11A914311EAC311E6D1704710B5FFF771
:1008D00011FD006810BD10B50446FFF70BFD046064
:1008E00010BD2DE9F0470D4699469246044600F1A9
:1008F00024080168880604D5E06921F01001216010
:1009000000E00120A84201DD471B00E00027A169AB
:100910007A1902EB0900081AA0612078C00602D4F7
:100920002046FFF783FC002608E0D4E901211AF8ED
:1009300006009047206A401C761C20624E45F4DB7E
:100940002078C0060AD52046FFF770FC06E0D4E9FF
:10095000012130209047206A401C2062381EA7F1F8
:100960000107F4DC07E0D4E9012118F805009047FD
:10097000206A401C2062281EA5F10105F3DC2046F8
:10098000FFF76AFC2078000602D50220BDE8F08758
:100990000120FBE701694A1C02610878704700B535
:1009A0008FB0CDE901310021059105497944CDE9A8
:1009B000031011466846FFF7DFFC0FB000BD0000D2
:1009C000E5FFFFFF0A6802F8010B0A60704710B5E7
:1009D000436913B1AFF3008001E0FFF74EFC012043
:1009E00010BD127800F124010A7000224A70012221
:1009F000EDE711684FF0FF32E9E700002DE9F04123
:100A000015460E46040002D12C6804B90BA42046FA
:100A100000F06EF80444207870B12746314638461D
:100A200000F056F80444207810B1002004F8010BBF
:100A300038462C60BDE8F0810027F9E7000000008F
:100A4000431A28BF9A427FF65AAE104410F0030FA3
:100A500011441EBF11F8013D521E00F8013D10F077
:100A6000030F7FF4F6AF103AC0F00A8010B531E9F9
:100A70001850103A20E91850BFF4F9AFBDE8104003
:100A8000530724BF31E9081020E9081044BF51F88A
:100A9000043D40F8043D12F0030F08BF7047D20731
:100AA00028BF31F8023D48BF11F8012C28BF20F8BB
:100AB000023D48BF00F8012C704700000149182092
:100AC000ABBEFEE72600020000487047DCD60720D8
:100AD00030B503461D781DB10A4603E0AC4201D192
:100AE000181A30BD12F8014B002CF7D15B1CF1E74E
:100AF00030B503461D783DB10A4612F8014B1CB1D2
:100B0000AC42FAD15B1CF5E7181A30BD7047754648
:100B1000FFF7DAFFAE4605006946534620F00700AE
:100B2000854618B020B5FFF75BFBBDE820404FF0CD
:100B300000064FF000074FF000084FF0000B21F0C7
:100B40000701AC46ACE8C009ACE8C009ACE8C00994
:100B5000ACE8C0098D46704710B50446AFF300807D
:100B60002046BDE81040FFF727BB000070B50446E3
:100B7000082C25D2144A02EB44025178124A12F88A
:100B8000140000F085FD1148006820F0FF010120ED
:100B9000A04001430D4801600A2000F063FA0B48B1
:100BA000006840F080700949086000BF074840684D
:100BB000C00F0028FAD005484068C0F30B1500E0CC
:100BC0000025284670BD00002A0C010000400340AB
:100BD00010B50A48006840F480500849C439C1F88B
:100BE000C40006F051FF04460548B4FBF0F0401E77
:100BF000040244F400100349086010BDC4C00F4053
:100C000040420F0000400340704700000D4800685C
:100C100020F008000B49C039C1F8C0001720002897
:100C20000DDB00BF00BF00F01F020121914042090F
:100C3000920002F1E022C2F8001100BF00BF00BF25
:100C400070470000C0C00F4010B59F210348FFF758
:100C500088FD00200249086010BD000026CF072053
:100C6000A4C10720012909D10A4A12680A4B03408E
:100C70001A43084BC43BC3F8C42009E041B9054AF4
:100C80001268054B83431A40024BC43BC3F8C4208F
:100C900070470000C4C00F40DEF7EFEF10B50A4602
:100CA000202801D2034601E0A0F1200319462028A4
:100CB00010D2124B1B6803248C40A343104CC4F881
:100CC000A8310E4B1B6802FA01F423430C4CC4F804
:100CD000A83111E0094B1B1D1B6803248C40A34362
:100CE000074CC4F8AC31054B1B1D1B6802FA01F41C
:100CF0002343034CC4F8AC3110BD0000A8C10F4021
:100D000000C00F4010B509A1022006F04BF808A161
:100D1000022006F047F806A1012006F043F840F64D
:100D2000B83106A006F0BCFC10BD00000D0A0000A2
:100D300041542B51494143543F0D00002B5149412F
:100D400043543A20312C310010B509A1022006F09D
:100D500029F808A1022006F025F806A1012006F0D6
:100D600021F840F6B83106A006F09AFC10BD00004C
:100D70000D0A000041542B514953544154450D0074
:100D80004F4B000010B506F0C8FB2BA1022006F067
:100D900009F829A1012006F005F84FF4FA5129A01D
:100DA00006F07EFC4FF4FA7000F044F926A1022010
:100DB00005F0F8FF24A1012005F0F4FF40F6B8315A
:100DC00020A006F06DFC4FF4FA7000F033F925A175
:100DD000022005F0E7FF23A1012005F0E3FF40F624
:100DE000B83118A006F05CFC4FF4FA7000F022F95C
:100DF00022A1022005F0D6FF20A1012005F0D2FF9C
:100E000040F6B8310FA006F04BFC4FF4FA7000F03A
:100E100011F923A1022005F0C5FF21A1012005F051
:100E2000C1FF40F6B83107A006F03AFC4FF4FA7063
:100E300000F000F910BD000041542B514346473DDE
:100E40003F0D00004F4B000041542B514346473D9E
:100E50002261707265616479222C312C302C38301B
:100E6000300D000041542B514346473D22726973B7
:100E700069676E616C74797065220D0041542B5165
:100E80004346473D2272697369676E616C7479707D
:100E900065222C22706879736963616C220D0000F1
:100EA00041542B514346473D227572632F72692F7F
:100EB000736D73696E636F6D696E67222C22707536
:100EC0006C7365222C3530300D00000010B5002108
:100ED000422000F0DDFB0121422000F0BFFB002199
:100EE000352000F0D5FB0121352000F0B7FB0021B3
:100EF0003A2000F0CDFB01213A2000F0AFFB0021A9
:100F0000332000F0C5FB0121332000F0A7FB0021B6
:100F10003C2000F0BDFB01213C2000F09FFB0322A0
:100F2000172100200DF0AEFF0022172110460DF012
:100F300091FF0322182100200DF0A4FF00221821A8
:100F400010460DF087FF10BD70B504460D4605F044
:100F500005FB012224A1254808F0E0FC2449087083
:100F60000846007830B123A1022005F005FD204895
:100F7000007870BD12222946224808F0F9FC1C496D
:100F800008700846007858B91E48C16808F06CFB24
:100F9000174908700846007810B11A4808F029FB74
:100FA0001849204608F0E5FD164917A008F0E1FDB4
:100FB0000F48007830B115A1022005F0DDFC0C4887
:100FC0000078D6E715A1022005F0D6FC0D4808F000
:100FD00010FB002204A1104608F0A0FC05F0C3FAA3
:100FE00003480078C5E7000000000000700500100D
:100FF000A0C507204D6F756E74206661696C6564CD
:101000002E0A0D00180100100A00000057726974C2
:1010100065206661696C65642E0A0D0057726974FB
:1010200065205375636365737366756C2E2E2E0A87
:101030000D00000030B50446002504E04FF47A703E
:1010400000F010F86D1CA542F8D330BD30B5044651
:10105000002504E04FF47A70FFF7ECFF6D1CA54209
:10106000F8D330BD0021002200BF05E0002200E0DF
:10107000521C062AFCD3491C8142F7D3704700005A
:1010800000B58FB01FA1022005F08CFE04F060FDBA
:101090004FF400712548FFF764FB25480068254997
:1010A0000968254A254BCDE90B32CDE90D102449BD
:1010B00024480068244A1268244BCDE90732CDE960
:1010C0000901234A234B2448407823498978CDE9F4
:1010D0000532CDE903102048C0881F4949791E4ACE
:1010E00012791EA3CDE9002102901E4A1E490F4825
:1010F000FFF786F80D4A1DA1022005F03DFC0FB058
:1011000000BD00000A0D202D2D2D2D206368656384
:101110006B20446174616C6F676765722053746102
:10112000747573202D2D2D2D200A0D00B6D00720AB
:1011300014C607208CC007209FC007209BC0072033
:1011400097C00720DCC50720D8C507206AC0072044
:1011500018C007201EC0072008C607204152472E8E
:10116000322E340005C907208CFB01000A0D202D0A
:101170002D2D2D20446174616C6F6767657220535B
:101180007461747573202D2D2D2D203A0A0D2020A9
:101190002025730A0D00000070B506460C46154662
:1011A0002946204605F0FCF80148066070BD0000A5
:1011B000C8C507202DE9F04704464FF00009A025D7
:1011C0001948006884422CD8E6B217480068B0F588
:1011D000006F02D9C4F3072804E0C4F3072745EAE7
:1011E0004700C5B205F02AF9284605F073F90E4804
:1011F0000068B0F5006F02D9404605F06BF9304643
:1012000005F068F905F01AF945F0010005F062F9FA
:10121000002005F0DBF8814605F038F90A20FFF7D9
:1012200021FF4846BDE8F087C8C5072070B50646CF
:101230000D4600BF3046FFF7BDFF04462C706D1C05
:10124000761C002CF6D170BD2DE9F04704460D4602
:10125000A02716480068844225D8E6B213480068E3
:10126000B0F5006F02D9C4F3072804E0C4F30729DE
:1012700047EA4900C7B205F0E1F8384605F02AF917
:101280000A480068B0F5006F02D9404605F022F91F
:10129000304605F01FF9284605F01CF905F0F6F870
:1012A0000A20FFF7C7FEBDE8F0870000C8C5072089
:1012B00070B505460C4600BF21782846FFF7C4FFED
:1012C000641C6D1C14F8010C0028F5D170BD0000E1
:1012D00010B50748006840F001000649C1F8400118
:1012E0000548006810B104490868804710BD000037
:1012F00040C10F4000C00F4024C0072010B5074870
:10130000006840F002000649C1F8400105488068C5
:1013100010B104498868804710BD000040C10F40EB
:1013200000C00F4024C0072010B50748006840F0F7
:1013300004000649C1F840010548006910B104499C
:101340000869804710BD000040C10F4000C00F4039
:1013500024C0072010B50748006840F0080006497F
:10136000C1F840010548806910B104498869804787
:1013700010BD000040C10F4000C00F4024C0072036
:1013800070B504460D461646042C70DA384901EB58
:10139000C4014879012100F07BF9354901EBC40112
:1013A00091F9040000280DDB00BF00BF00F01F0210
:1013B000012191404209920002F1E022C2F800119D
:1013C00000BF00BF00BF2A4840F8345036B1012E9C
:1013D00016D0022E26D0032E48D135E025480168CC
:1013E0000120A04081432448C0F848112148001D35
:1013F00000680121A14088431F49C1F84C0135E034
:101400001C4801680120A04081431B48C0F84811D6
:101410001848001D01680120A04001431648C0F88B
:101420004C1123E0134800680121A14008431249F0
:10143000C1F848010F48001D01680120A040814308
:101440000D48C0F84C1111E00A4800680121A14084
:1014500008430949C1F848010648001D01680120F8
:10146000A04001430448C0F84C1100BF00BF70BD4C
:1014700024C0072048C10F4000C00F4010B50446EB
:10148000042C0ADA054901EBC4014879002100F077
:10149000FFF80020014941F8340010BD24C00720A6
:1014A00008B5014664204843009000BF0098421EE2
:1014B00000920028FAD1012008BD00002DE9F05F5C
:1014C0008046894616469A46DDE90A5B002704E015
:1014D000002029490968C8557F1C1F2FF8D335B152
:1014E000032D08D0122D08D0252D08D101E00024AD
:1014F00008E0082406E0122404E0242402E009FBAA
:1015000006F400BF00BF1D491B48006806F0EAF959
:101510001B48016818480068001D06F0E3F92146E1
:1015200015480068083006F0DDF9BAF1010F01D165
:10153000002000E050461049096808730E48006812
:1015400080F80EB00C480068C573032D01D0122D31
:1015500003D109490968CC7405E041460648006892
:10156000113006F0A9F9314603480068163006F03C
:101570009BF9BDE8F09F000050C607205553424339
:1015800064C6072070B5054605F0C7FF19A1022003
:1015900005F008FC18A1022005F004FC16A10120AA
:1015A00005F000FC40F6B83116A006F079F808B94D
:1015B000032070BD4FF4FA70FFF73CFD0DA102202F
:1015C00005F0F0FB02240EE04FF4FA6210A111A026
:1015D00004F044FD08B10120EBE74FF4FA70FFF787
:1015E00029FD601EC4B2002CEEDCC820FFF722FDEE
:1015F0000020DEE70D0A000041542B514750533FB5
:101600000D0000002B514750533A203000000000DD
:101610004F4B000041542B514750533D31000000C7
:1016200010B509A1022005F0BDFB08A1022005F0BC
:10163000B9FB06A1012005F0B5FB40F6B83106A0C4
:1016400006F02EF810BD00000D0A000041542B5189
:10165000475053454E440D004F4B000030B50A46ED
:10166000A02811DA431100F01F00084C04EB4311CD
:101670002AB10C68012585402C430C6004E00C68FD
:1016800001258540AC430C6030BD000000C009203E
:1016900030B50A46A0281CDA032A1AD8431100F0F4
:1016A0001F005C06230E102804DB5C1CE3B2A0F1D3
:1016B0001004E0B24406200E064C04EB830103251F
:1016C00085400C68AC430C6002FA00F50C682C43B2
:1016D0000C6030BD00C0024030B501460020A0299A
:1016E0000EDA4A1101F01F01064C04EB42135C694B
:1016F00001258D402C400CB1012400E0002420463F
:1017000030BD000000C0092030B50A46A02811DA1B
:10171000431100F01F00084C04EB43112AB18C69FF
:10172000012585402C438C6104E0CC69012585406E
:101730002C43CC6130BD000000C0092010B5144816
:101740000068FFF71FFF1349087008460078032858
:1017500003D111A1022005F025FB0E4800780428D2
:1017600003D113A1022005F01DFB10A1022005F0FA
:1017700019FB18A1022005F015FB16A1012005F0A8
:1017800011FB40F6B83119A005F08AFF10BD00002A
:1017900070C007207EC00720475053532053746900
:1017A0006C6C20706F776572204F4E200D0A000020
:1017B00054494D455F53594E4348524F4E495A453F
:1017C0005F4E4F545F434F4D504C455445200D0ADA
:1017D0000000000041542B514750534346473D22DF
:1017E0006E6D6561737263222C310D004F4B0000EA
:1017F00010B509A1022005F0D5FA0CA1022005F0D0
:10180000D1FA0AA1012005F0CDFA40F6B8310BA0BB
:1018100005F046FF10BD000044656C6574696E6795
:1018200020616C6C20534D530D0A000041542B4332
:101830004D47443D312C340D0A0000004F4B000051
:1018400010B586B0044600200C4908600CA10220A7
:1018500005F0A8FA224610A101A8FEF7D1FC01A9C3
:10186000022005F09FFA01A9012005F09BFA40F63D
:10187000B8310CA005F014FF06B010BD44C007201D
:1018800044656C6574696E672063757272656E7409
:1018900020534D530D0A000041542B434D47443D06
:1018A00025640D004F4B000038B54FF4FA70FFF778
:1018B000C1FB67A1022005F075FA7249022005F00C
:1018C00071FA71A1022005F06DFA70A16D48FEF762
:1018D000EFFD20B96EA1022005F064FAB4E005F036
:1018E0001CFE00206E49086012E066486C490968D9
:1018F000405C0D2805D0634869490968405C0A28A6
:1019000005D167480068401C6549086000E000E0B8
:10191000EBE700BF04E062480068401C60490860D3
:1019200058485F490968405C2C28F4D15C4800683D
:10193000801C5B49086000240BE052485849096844
:10194000405C5849085556480068401C5449086096
:10195000641C0C2CF1DD54A1022005F023FA51493E
:10196000022005F01FFA48A1022005F01BFA4C489E
:101970000068C01C4A490860002400BF0BE04148D1
:1019800047490968405C4E49085545480068401C75
:1019900043490860641C0F2CF1DB2220484908559C
:1019A00048A1022005F0FEF94549022005F0FAF9A8
:1019B00035A1022005F0F6F900BF39480068401C47
:1019C0003749086008460068401E2E49085C0A280E
:1019D000F3D100240BE02B4831490968405C3F49B2
:1019E00008552F480068401C2D490860641C254894
:1019F0002B490968405C0D28EDD10020284908607A
:101A00003649085536A1022005F0CCF933490220A9
:101A100005F0C8F91CA1022005F0C4F93748006898
:101A2000401C364908604FF400713548FEF799FEB6
:101A30002A481C4B224A33A100903148FEF7E0FBB4
:101A400034A12F48FFF780FA00203649087038BDCE
:101A50004265666F726520436F6D706172696E6773
:101A600020636F6E74656E74206F6620454332305C
:101A70002855415254312920427566666572203AD4
:101A80000000000026CF07200D0A00002C000000F7
:101A90004E6F206D6573736167650D0A000000006D
:101AA00044C007207CC6072073656E646572277387
:101AB000206D6F62696C65206E6F203A0D0A000020
:101AC000D4C60720204D657373616765206172720B
:101AD0006976652074696D65200D0A008AC6072045
:101AE0000D0A202D2D2D2D20534D5320426F64794A
:101AF000202D2D2D2D200D0A0000000048C00720AC
:101B0000E5C607205B25735D3B5B25735D3B257355
:101B100000000000726563765F534D532E74787435
:101B20000000000050C007203EB50446FFF78CF8C7
:101B300022460DA16846FEF763FB6946022005F0C8
:101B400031F96946012005F02DF91920FFF772FAE5
:101B500040F6B83108A005F0A3FD09A1022005F068
:101B600021F9FFF7A1FE3EBD41542B434D47523DA5
:101B700025640D0A000000000A2B434D4752000067
:101B80000D0A202D2D2D2D207072696E7420746821
:101B900065207265616420534D53206F6E2074651B
:101BA000726D696E616C202D2D2D2D200D0A0000A7
:101BB000F0B589B004460D4600260020294908608A
:101BC00005F0ABFC224628A16846FEF719FB6946E2
:101BD000022005F0E7F86946012005F0E3F8C82087
:101BE000FFF728FA27E024481E490968405C3E2890
:101BF0001CD100201B4908601F48FEF78FFC0746D8
:101C000039461D48FEF7ADFD2946012005F0CAF80A
:101C10001A21012005F030F82946022005F0C2F80B
:101C2000164917A005F03CFD064605E00D48006882
:101C3000401C0C490860D6E700BF4FF49670FFF7D0
:101C4000F9F90020074908606846FEF767FC074677
:101C500039466846FEF7A7FD16B1012009B0F0BD70
:101C60000020FBE744C0072041542B434D47533D20
:101C7000222573220D0A000026CF0720C0D40100C0
:101C80004F4B00002DE9F0478CB08046894617463F
:101C9000FE48007868B101F0B1F9002001F07AFA4D
:101CA000FBA001F0E1FA012001F074FAFAA001F0C2
:101CB000DBFA05F032FC4046FEF730FC824650234A
:101CC0005246F8A105A80097FEF79AFA05A9022046
:101CD00005F068F805A9012005F064F8F749F8A0B7
:101CE00005F0DEFC002876D005F017FC47F23052F4
:101CF000F5A1404604F0B2F9F4A1F648FEF7D8FB8E
:101D000020B9F5A1F348FEF7D3FB58B1DF480078BE
:101D100020B101F073F9F2A001F0A6FA01200CB095
:101D2000BDE8F08747F23052EBA1E8A005F0D4FC03
:101D300006464EB1D548007820B101F05FF9EDA01C
:101D400001F092FA0120EAE7D048007898B101F05A
:101D500055F9ECA001F088FAEEA1022005F022F876
:101D600004F000FB01F04AF9F6A001F07DFA4FF40F
:101D7000FA70FFF75FF904F0F5FA40F2BE20F4497B
:101D800008604FF40071F348FEF7EBFCF24803F0F3
:101D90009FFDEF480368F0484078EF498978EE4AA4
:101DA000D288CDE90203CDE90021EB4843790279DD
:101DB000EA49E848FEF724FAE9A1E648FFF7C4F843
:101DC000E9A1C448FEF774FB88B9EBA1C148FEF74E
:101DD0006FFB60B900E0D5E0EBA1BE48FEF768FB01
:101DE00028B9F0A1BB48FEF763FB00287DD0C9A14C
:101DF000022004F0D7FF04F0B5FA05F08EFBDAA15B
:101E0000B448FEF755FB38B1ECA1022004F0CAFF3C
:101E100040F2BF20CE490860D7A1AE48FEF748FB8C
:101E200038B1EAA1022004F0BDFF40F2CA20C8493F
:101E30000860DCA1A748FEF73BFB38B1E7A1022010
:101E400004F0B0FF40F2BE20C14908604FF40071B9
:101E5000C048FEF786FCC04803F03AFDBC48036862
:101E6000BD484078BC498978BB4AD288CDE9020395
:101E7000CDE90021B84843790279E149B548FEF738
:101E8000BFF9B7A1B348FFF75FF804F06BFA0DF0A4
:101E900033F942F21070FFF7CDF802F021FF05464A
:101EA000002D4AD0404603F0D9F80446022C03D056
:101EB000052C01D0002C3ED1D2A1022004F072FFEB
:101EC00072480078A0B101F099F8002001F062F9A1
:101ED000D8A001F0C9F901F091F89AA001F0C4F975
:101EE0004FF4FA70FFF7A6F800E0CBE004F03AFAFE
:101EF0004FF400719748FEF734FC974803F0E8FC74
:101F00009548407894498978934AD288CDE9002150
:101F10000290914843790279CAA18E48FEF770F980
:101F20008FA18C48FFF710F84FF47A70FFF782F812
:101F300005240020F3E60120F1E64FF40071854806
:101F4000FEF70FFC844803F0C3FC834840788249C5
:101F50008978814AD288CDE9002102907E48437970
:101F60000279C6A17B48FEF74BF97DA17948FEF7BF
:101F7000EBFFD2A1022004F015FF0020D849086031
:101F80000524CCE678A15348FEF792FA78B97AA1F5
:101F90005048FEF78DFA50B97BA14E48FEF788FAFB
:101FA00028B980A14B48FEF783FA00286AD004F0D4
:101FB000D9F905F0B2FA6CA14648FEF779FA38B1C2
:101FC0007EA1022004F0EEFE40F2BF2060490860CE
:101FD00069A14048FEF76CFA38B17CA1022004F0F8
:101FE000E1FE40F2CA205A4908606EA13948FEF766
:101FF0005FFA38B179A1022004F0D4FE40F2BE208D
:10200000534908604FF400715248FEF7AAFB52484A
:1020100003F05EFC4E4803684F4840784E4989788B
:102020004D4AD288CDE90203CDE900214A484379DF
:102030000279AC494748FEF7E3F849A14548FEF765
:1020400083FF04F08FF90DF057F842F21070FEF79D
:10205000F1FF02F045FE0546002D15D0404602F086
:10206000FDFF0446022C03D0052C01D0002C0CD11E
:102070000648007838B100F0C1FF002001F08AF86E
:102080006CA031E183E131E15BE158E1BAC00720A6
:1020900053656E64696E67005061636B65742E2EC4
:1020A0002E00000041542B5148545450504F53546B
:1020B0003D25642C25642C25640D0000C0D401004E
:1020C000434F4E4E454354004F4B00002C323030AE
:1020D0000000000026CF07202C3330320000000023
:1020E000506F7374205375636365737320322F339D
:1020F00000000000506F7374205375636365737341
:1021000020212100506F7374206661696C202121A9
:10211000000000005368757474696E6720446F771F
:102120006E204D6F64756C65204166746572204148
:102130006E792047505253204572726F72200A0DFB
:102140000000000047534D205368757444574E00FB
:1021500088C00720B0C9072008C6072028F9010059
:102160006572722E747874002B434D45204552528F
:102170004F523A20373033002B434D4520455252C1
:102180004F523A20373134002B434D4520455252AF
:102190004F523A204874747020646E7320657272D6
:1021A0006F7200004D4F44454D5F524553504F4EA6
:1021B00053455F54494D454F555400005B455252BD
:1021C0004F525D3A203730330A0D00005B455252C2
:1021D0004F525D3A203731340A0D00005B455252B0
:1021E0004F525D3A204D4F44454D5F524553504F3D
:1021F0004E53455F54494D454F55540A0D0000005C
:102200009CF801000A0D202D2D2D2D2D2D2D2D207A
:102210005061636B65742073656E64696E672066D8
:1022200061696C6564202D2D2D2D2D2D2D2D0A0D10
:102230000000000020506F7374206661696C656453
:10224000202100005B253032642F253032642F2599
:10225000643B253032643A253032645D3A5B455246
:10226000524F525D3A7061636B65742073656E64A2
:10227000696E67206661696C65643B005B2530327E
:10228000642F253032642F25643B253032643A2593
:102290003032645D3A5B4552524F525D3A4D6F6445
:1022A000756C6520696E697469616C697A617469BD
:1022B0006F6E206661696C65643B00002D2D4D6F6B
:1022C00064756C6520696E697469616C697A6174A2
:1022D000696F6E206661696C642D2D200A0D000007
:1022E0008CC0072058F8010000F0BEFFAFF2EC01EF
:1022F000022004F057FD4FF400712648FEF731FA32
:10230000254803F0E5FA244841788078224AD288AB
:10231000CDE900200291204843790279AFF2DC0137
:102320001C48FDF76DFFAFF2C8111A48FEF70CFE0E
:102330004FF47A70FEF77EFE05240020EFE40120C2
:10234000EDE44FF400711348FEF70BFA124803F066
:10235000BFFA1148417880780F4AD288CDE9002031
:1023600002910D48437902790CA10A48FDF748FF14
:10237000AFF214210748FEF7E7FDAFF2C0010220DB
:1023800004F010FD0020154908600524C7E400BFD3
:10239000C5E40000B0C9072008C607205B2530321D
:1023A000642F253032642F25643B253032643A2572
:1023B0003032645D3A5B4552524F525D3A4D6F6424
:1023C000756C6520696E697469616C697A6174699C
:1023D0006F6E20666169656C643B00008CC00720ED
:1023E00030B587B0044618A1022004F0DBFC16A12A
:1023F000012004F0D7FC40F6B8311AA005F050F9DE
:1024000005F08BF82046FEF789F805462A4616A106
:102410006846FDF7F5FE6946022004F0C3FC6946F4
:10242000012004F0BFFC47F2305114A005F038F948
:1024300038B147F230520BA1204603F00FFE07B02F
:1024400030BD0020FBE7000041542B51485454504C
:102450004346473D22636F6E746578746964222C2D
:10246000310D00004F4B000041542B514854545043
:1024700055524C3D25642C33300D0000434F4E4ED9
:10248000454354002DE9F84706460F4690469946C5
:10249000DDE9094A4B46424639463046009400F091
:1024A000B5F908231048002102681048006800F0C0
:1024B000D3FA0546A5B94CB123460B484FF4801119
:1024C00002680A48006800F0C7FA054645B90023CB
:1024D0001A464FF400210548006800F0BDFA054691
:1024E0002846BDE8F887000050C6072034C60720FC
:1024F0002DE9F84706460F4690469946DDE9094A18
:102500004B46424639463046009400F07FF9082396
:102510001048002102681048006800F09DFA054646
:10252000A5B94CB123460B484FF4002102680A4874
:10253000006800F091FA054645B900231A464FF4A9
:1025400080110548006800F087FA05462846BDE876
:10255000F887000050C6072034C6072018B5044687
:102560000020009006E04FF47A7000F007F8009821
:10257000401C00900098A042F5D318BD08B500217A
:10258000009102E00099491C00918100009A91425B
:10259000F8D808BD0021016041608160C1607047CA
:1025A0007CB56EA1022004F0FDFB00F027FD0020A9
:1025B00000F0F0FD71A000F057FE002516E0724813
:1025C000006828B9012000F0E5FD70A000F04CFE85
:1025D0006D48006828B1012000F0DCFD6FA000F01C
:1025E00043FE4FF47A70FFF7B9FF6D1C052DE6DB53
:1025F0006420FFF7B3FF6448006800F0010068B191
:1026000010206A49486500BF6848406D00F010001E
:102610000028F9D14FF48010644948655A48006891
:1026200000F0020068B110206049886500BF5F4873
:10263000806D00F010000028F9D14FF480105B4944
:102640008865C820FFF78AFF4FF4002058490968C1
:10265000086058480068082100234A01CDE90010AD
:1026600006218020FFF70EFF044634B1224652A116
:10267000022004F081F920467CBD4E480068C079F4
:1026800000044B49096808600020009003460122BD
:1026900005210190FFF72CFF044634B122464AA1E0
:1026A000022004F069F92046E6E70220FFF756FF12
:1026B0003F480068006840F001003D490968086033
:1026C0003C480068092100234FF40072CDE9001056
:1026D00006218020FFF7D6FE044634B122463EA1F3
:1026E000022004F049F92046C6E732480068801C01
:1026F00003F096F906462F48006800234FF4007255
:102700000621CDE900608020FFF7BCFE044634B10D
:10271000224634A1022004F02FF92046ACE702F053
:1027200087F9044634B1224631A1022004F024F98D
:102730002046A1E7002000900346012209210190D4
:10274000FFF7D6FE044624B122462DA1022004F054
:1027500013F96420FFF702FF20468DE7436F6E6E8A
:102760006563742061204D6173732053746F7261CF
:102770006765206465766963650A0D00636F6E6E38
:10278000656374205553420028C607206E6F74207D
:10279000636F6E6E6563746564000000636F6E6ED8
:1027A00065637420446F6E650000000000C0005037
:1027B00034C6072050C607202031737420524320AE
:1027C0003A25640A0D00000020326E642052432036
:1027D0003A25640A0D0000003372642052433A2502
:1027E000640A0D003474682052433A25640A0D00CF
:1027F000203574682052433A25640A0D0000000019
:102800003674682052433A25640A0D002DE9F043DE
:1028100005460E4617469846DDF81C90002404E055
:102820000020104909680855641C4C45F8DB0D4828
:10283000006805700B480068467039460948006812
:10284000801C05F047F8414606480068001D05F069
:1028500041F8494603480068801D05F03BF8BDE893
:10286000F083000050C60720002107E0002240F856
:102870002120C0F88020C0F88420491C2029F5D3ED
:102880007047000070B55448006840F0004052495D
:10289000C439C1F8C4001F205049086000BF4F4828
:1028A000001D006800F01F001F28F8D103204C49CC
:1028B00008604C48406820F070504A49486008461B
:1028C000406840F0A050486047A1022004F06AFA36
:1028D0004C4C4D48046004F580704C49086004F588
:1028E00088704B49086004F590704A49086004F507
:1028F00098704949086004F5A0704849086004F5DB
:10290000A8704749086004F5E8704649086004F576
:102910008050454908603F480068FFF73BFE3E484D
:102920000068FFF737FE3D480068FFF733FE374881
:10293000006800F009F93648006800F005F93248EF
:102940000068FFF791FF3220FFF708FE00203749AB
:1029500048600862886201208860354848630846FC
:10296000406820F0C00040F0800048604FF48030A4
:1029700008652548006888610846C068C96808433A
:102980002A49C8602B480861182000280DDB00BFC9
:1029900000BF00F01F02012191404209920002F1A4
:1029A000E022C2F8001100BF00BF00BF18200021C4
:1029B000002804DBCA06130E1F4A135406E0CA0699
:1029C000150E1E4A00F00F031B1FD55400BF1CA19B
:1029D000022004F0E7F970BDC4C00F40F4CF0050EE
:1029E00010C1005000C00240496E697469616C6991
:1029F0007A696E6720486F737420537461636B2E1D
:102A00002E0A0D000000082048C6072040C60720F7
:102A100044C6072034C6072038C607203CC6072016
:102A200050C6072054C6072058C6072000C00050D3
:102A3000DF2E78275200008000E400E018ED00E06F
:102A4000486F737420496E697469616C697A656452
:102A500020446F6E650A0D001FB581B004463548ED
:102A60000068844209D1029818B94FF000700090B4
:102A700005E04FF04070009001E0002000900298C7
:102A800040F480200099084340F070402A490968CA
:102A900008600020294909680860274800684260EA
:102AA00000202649096848602448006822490968CE
:102AB00088600020214909688860581E10441E491A
:102AC0000968C86000201D490968C860A06800F056
:102AD0000200194909680843A0601848006860604E
:102AE0000020E0601348006884420CD1144804625E
:102AF000806840F00200124988600846406840F053
:102B0000100048600BE00E488462806840F00400CA
:102B10000B4988600846406840F02000486000F09B
:102B200019F80848007810B9002005B010BD4FF022
:102B3000FF30FAE734C6072040C6072044C6072006
:102B400000C0005030C60720002101604160816054
:102B5000C160704700BF044800680028FBD0002017
:102B600001490860704700002CC607200246022A6F
:102B700009D111B90B480068704701290FD10948E4
:102B8000001F0068F8E752B919B9064820380068F4
:102B9000F2E7012903D1034824380068ECE700205C
:102BA000EAE70000A8800240044805490860401494
:102BB00003498C39C1F8AC0070470000FF8FFF7FDC
:102BC0008C80024010B55AB10B4B53F820301B6873
:102BD00001248C402343084C54F8204023600AE031
:102BE000054B53F820301B6801248C40A343024C52
:102BF00054F82040236010BD540D010030B5034649
:102C0000BBB94AB92148006801248C4020431F4CBD
:102C1000943CC4F8940026E0012A24D11B48001FEC
:102C2000006801248C402043184C943CC4F8900068
:102C300019E0022B17D152B9144820300468012042
:102C40008840044311489438C0F8B4400BE0012A8E
:102C500009D10E481C30006801248C4020430B4CE5
:102C6000943CC4F8B000152000280DDB00BF00BF65
:102C700000F01F050124AC404509AD0005F1E02539
:102C8000C5F8004100BF00BF00BF30BD94800240C6
:102C900010B50AB90A2206E0012A01D1002202E099
:102CA000022A00D10B22052860D2DFE800F0031AC7
:102CB000313C4E00102908D249002D4B1B6C02FA02
:102CC00001F423432A4C23640AE00F2908D9103960
:102CD0004900274B5B6C02FA01F42343244C6364E4
:102CE00044E0102908D24900214B9B6C02FA01F400
:102CF00023431F4CA3640AE00F2908D91039490067
:102D00001B4BDB6C02FA01F42343194CE3642DE006
:102D10000E2907D24900164B1B6D02FA01F423431A
:102D2000134C236522E0192906D1114BDB6D43EAD0
:102D300082430F4CE36507E01A2905D10C4BDB6D8C
:102D400043EA02530A4CE36510E01C2906D1084B04
:102D50005B6E43EA0263064C636607E01D2905D1FA
:102D6000034B5B6E43EA8263014C636600BF10BD98
:102D700000C0024010B51049002008F07AF80F4951
:102D8000012008F076F80E49022008F072F80D498B
:102D9000032008F06EF80C49042008F06AF80B498B
:102DA000052008F066F80A49062008F062F809498B
:102DB000072008F05EF810BD1BC1072023C10720C3
:102DC0002BC1072033C107203BC1072043C1072087
:102DD0004BC1072053C1072000B587B00121002057
:102DE00004F0A3FB174804F037FCFDF70FFFFDF7D5
:102DF000EFFE1620152114221323CDE90332CDE96D
:102E00000510FF20009001900346472246210290C2
:102E1000452000F0E5FD08F049F902F091FD03F0CE
:102E200095FB4FF4E131012003F06CFD4FF4E131EB
:102E3000022003F067FD012200211004FEF7ACF927
:102E400007B000BD0095BA0A70B546A1022003F094
:102E5000A9FF04F062FB00213A20FEF755FC4FF475
:102E6000FA60FEF7E7F84448006878B103F07AFAB0
:102E70000CF042F942F21070FEF7DCF801F0F8FABB
:102E8000FEF75CFC4FF4FA70FEF7D4F8052550E02D
:102E90003A48007838B100F0B1F8002000F07AF933
:102EA00037A000F0E1F904F038FB2EA1022003F076
:102EB00079FF4FF4FA6236A136A003F0CFF800286C
:102EC00035D037A1022003F06DFF3220FEF7B2F8B3
:102ED0004FF4FA622EA137A003F0C0F838B33220C5
:102EE000FEF7A8F800241DE03548005D302817DB08
:102EF0003348005D392813DC314801191322314869
:102F0000FDF778FC00202F49C8742D48FDF706FB1B
:102F1000C4B22C4A2CA1022003F02EFD012070BD6A
:102F2000601CC4B22648FDF7F9FAA042DCD8681E3E
:102F3000C5B2002DACDC27A1022003F033FF2AA18B
:102F40002048FDF7C7FA0D48007848B1012000F08D
:102F500021F926A000F088F94FF4FA60FEF76AF82C
:102F60000020DCE7436865636B696E672053494D59
:102F7000203120200D0A0000A4C00720BAC007207D
:102F8000436865636B696E672053494D31000000EB
:102F90004F4B000041542B4350494E3F000000006E
:102FA00053494D2031204465746563746564210D77
:102FB0000A00000041542B514343494400000000E3
:102FC00026CF072015C90720434349443A202573DB
:102FD0000A0D000053494D2031206E6F7420666F3A
:102FE000756E6420200D0A004E41000053494D20AB
:102FF00031206E6F7420666F756E640010B501200D
:1030000000F004F8002000F0C5F810BD10B504462B
:1030100007F04EFF0A488078082803D1204608F0C0
:1030200027F806E0204608F005F807F0CBFF200758
:10303000040E204607F0FEFF07F0C4FF10BD00009D
:1030400078CE072010B504460A4840780A49097826
:10305000884201DD0A2C01D100F0B4F80A2C07D017
:10306000204607F071FF04480078401C02490870B0
:1030700010BD000078CE0720B5C0072070B504460B
:1030800020460DF05DFB0546FF2229460A2000F090
:103090001BF82E20FFF7D6FF28460DF089FB0646C9
:1030A00021460DF0CAFC0446064920460DF0C8FB37
:1030B00006460DF045FB0546FF2229460A2000F092
:1030C00003F870BD0000C842FEB507460E4615461F
:1030D0000024022F14D110E0681E012101FA00F033
:1030E000304008B1012000E00020044604F1300126
:1030F000C8B2FFF7A7FF681EC5B2002DECD13CE0B7
:103100005EB9002404E03020FFF79CFF601CC4B2CD
:10311000AC4232DA0A2CF6D32FE0002414E04EB190
:10312000B6FBF7F007FB1060C0B20DF80400B6FB69
:10313000F7F607E0FF2D01D00A2D00D906E00020A8
:103140000DF80400601CC4B2AC42E8DB00BF12E022
:10315000611E1DF80110092904DD611E1DF8011012
:10316000373103E0611E1DF801103031C8B2FFF79E
:1031700069FF601EC4B2002CEAD1FEBD10B5044642
:1031800003E014F8010BFFF75DFF20780028F8D169
:1031900010BD000010B5044606480078A04208DDC6
:1031A000002005490870054804700549085DFFF7CF
:1031B0002DFF10BD78CE0720B5C00720B4C0072072
:1031C000B6C0072010B50C480078401C0A490870AA
:1031D00000200A4908700A4800780749097888429F
:1031E00002DC0020044908700649034A1278885C12
:1031F000FFF70CFF10BD0000B4C00720B5C00720CA
:1032000078CE0720B6C0072070B505460C46144896
:1032100044700570022D08DD04F00F009030114954
:10322000887004F00F00D030C8706420FDF702FFF2
:103230000B488078082803D13820FFF7E7FE08E024
:1032400007488078042804D107F09AFE2820FFF769
:10325000DDFE0C20FFF7DAFEFFF7D0FE70BD0000A8
:1032600078CE0720B6C007200FB42DE9FF5F0FA866
:1032700003900E9DEBE02C78252C79D16D1C2C78D9
:10328000302C11DB392C0FDC002608E0A4F13000D3
:1032900006EB860100EB4100C6B26D1C2C78302C89
:1032A00003DB392CF2DD00E0FF26582C79D010DC4E
:1032B000442C3FD006DC252C74D0422C73D0432CF8
:1032C00021D117E0462C6FD0532C6ED0552CF7D15E
:1032D0004FE0662C6AD006DC622C75D0632C0AD0D5
:1032E000642CEDD110E0732C7DD0752C34D0782C6B
:1032F000E6D14AE000BF039810F8041BCCB203905B
:103300002046FFF79FFE9DE0039830F8041B0FFA5C
:1033100081F90390B9F1000F06DAC9F100000FFA44
:1033200080F92D20FFF78EFE324649460A20FFF72E
:10333000CBFE87E0039850F804AB0390BAF1000F7E
:1033400004DACAF1000A2D20FFF77CFE324651460E
:103350000A20FFF7B9FE75E0039830F8041B0390CC
:1033600088B2029032460A200299FFF7ADFE69E06A
:1033700069E00398006801900398001D03903246AD
:103380000A200199FFF7A0FE5CE0039830F8041BC7
:10339000039088B20290324610200299FFF794FE03
:1033A00050E005E04AE01FE02DE03EE02CE00BE0BD
:1033B0000398006801900398001D03903246102086
:1033C0000199FFF781FE3DE0039830F8041B03905C
:1033D00088B20290FF2E00D11026324602200299B8
:1033E000FFF772FE2EE021E0039800680190039839
:1033F000001D0390FF2E00D11026324602200199B5
:10340000FFF762FE1EE000BF0398C01D20F007001A
:103410000390D0E9007808300390384641460CF01C
:103420008DF90090FFF72AFE0CE000BF039850F8DA
:1034300004BB03905846FFF7A1FE03E02520FFF7E9
:1034400001FE00BF02E02046FFF7FCFD6D1C28785E
:1034500000287FF410AF0390BDE8FF1F5DF814FB58
:103460002DE9FE4F3220FDF7E5FDDE4800680D280E
:103470000ED2DFE800F00D070E242B323AB7E9FC3C
:10348000FBFAF900FFF7BAFDD7A1D9A0FFF7ECFED0
:10349000A5E1DC4802F01CFAFFF7B0FDD94800783E
:1034A000D8494978D74A9278CDE900210290D54889
:1034B000C38842790179D4A0FFF7D6FE8FE1FFF7E8
:1034C0009DFDD949D9A0FFF7CFFE88E1FFF796FD12
:1034D000DA49DBA0FFF7C8FE81E1FFF78FFDDA488C
:1034E0000168DAA0FFF7C0FE79E10020FDF73EFB9E
:1034F000DB490860084600680CF0FFFB80464FF08F
:103500006632D84B0CF060FC06460022D64B0CF01D
:1035100003FA04460CF012F9D44908600846006822
:103520000CF062FF80460022D14B0CF04DFC0646A9
:103530004FF06632CB4B0CF0EFF904460CF0FEF87E
:10354000CC4908603220FDF775FD0120FDF70EFB28
:10355000C9490860084600680CF0CFFB06464FF0EA
:103560006632C04B0CF030FC04460022BE4B0CF01F
:10357000D3F980460CF0E2F8C049086008460068BC
:103580000CF032FF06460022BD4B0CF01DFC044639
:103590004FF06632B34B0CF0BFF980460CF0CEF81A
:1035A000B84908600222B849B248006807F002F83A
:1035B0000222B649B348006806F0FCFFFFF71EFD83
:1035C0000020FFF7E7FDB049B1A0FFF74DFE012055
:1035D000FFF7E0FDAD49B2A0FFF746FE6420FDF71E
:1035E00029FDFCE0022002F0DFF904460CF0FCFEAD
:1035F000AF4A03C2AF4800680CF096FB04460022B5
:10360000AD4B0CF0E1FB0646A9480CC830460CF067
:10361000C7F8A74A03C2A64903C90CF08FF80446AD
:103620000222A64906F0C6FFFFF7E8FC0020FFF7DC
:10363000B1FDA3A0FFF718FE0120FFF7ABFD9F49E6
:10364000A2A0FFF711FECAE0FFF7D8FC0020FFF7A9
:10365000A1FDA049A0A0FFF707FE0120FFF79AFDFA
:10366000A148A249026803E076E028E016E003E002
:103670009FA0FFF7F9FDB2E0FFF7C0FC0020FFF7C5
:1036800089FD9EA0FFF7F0FD0120FFF783FD9F4B12
:103690009F4AA049A0A0FFF7E7FDA0E0FFF7AEFC1E
:1036A0000020FFF777FD9F499FA0FFF7DDFD012078
:1036B000FFF770FD9F49A0A0FFF7D6FD8FE0012026
:1036C000FDF7DCFEFFF79AFC0020FFF763FD9DA0ED
:1036D000FFF7CAFD0120FFF75DFD9EA0FFF7C4FDC7
:1036E00000214B20FDF7D4FF00214B20FDF7B6FF52
:1036F00040F2DC50FDF79EFC4B20FDF7EDFF8246CB
:10370000BAF1000F1ED14FF47A70FDF793FC4B20F5
:10371000FDF7E2FF8246BAF1000F13D1FFF76EFC0E
:103720000020FFF737FD90A0FFF79EFD0120FFF777
:1037300031FD92A0FFF798FD0BF0CCF9002102209B
:1037400002F056F94FF4FA70FDF774FC2548006852
:10375000401C2449086042E0FFF750FC0020FFF7BE
:1037600019FD78A0FFF780FD0120FFF713FD87A06A
:10377000FFF77AFD00214B20FDF78AFF00214B2047
:10378000FDF76CFF40F2DC50FDF754FC4B20FDF7D9
:10379000A3FF8246BAF1000F0ED14FF47A70FDF705
:1037A00049FC4B20FDF798FF8246BAF1000F03D188
:1037B000FFF724FC03F004FB4FF4FA70FDF73AFC2A
:1037C00001207649086000200649086002227449F9
:1037D0000120FDF7D5FD0520FDF72CFC00BF00BF43
:1037E000BDE8FE8FB0C007204152472E322E340074
:1037F0004844572053542D30333031200A46575215
:103800002025730008C607202020202532642F259C
:1038100032642F25640A202020202532643A253284
:10382000643A25326400000005C9072044657669C2
:10383000636520494D45493A0A25730015C907209B
:10384000434349443A25730070C007204F706572A6
:1038500061746F722041504E3A0A257300000000D7
:1038600000C0072066660A4000FEAF4008C007207F
:103870000000344010C0072004C007200CC00720FF
:103880000000424014C0072018C007201EC00720B7
:1038900042617474203A20253031732056000000B4
:1038A000536F6C61723A202530317320560000004E
:1038B00030C507205CC507200000E03F18C5072081
:1038C0005261696E2066616C6C0000002573206D8A
:1038D0006D0000006AC007205369676E616C20515B
:1038E0006C74793A202573008CC007202EC90720FC
:1038F00025732C7064703A2025316400734C6F6717
:103900007C704C6F677C724C6F6700009FC0072013
:103910009BC0072097C0072025737C25737C2573E7
:1039200000000000E5C807204C6174203A20257390
:1039300000000000F5C807204C6F6E203A20257368
:10394000000000005072657373202620486F6C647D
:1039500000000000746F2073656E642074657374DA
:10396000206C6F67000000002B2B2B2054657374B4
:10397000206C6F67202B2B2B0000000055706C6FA4
:103980006164696E672E2E2E00000000746F206344
:103990006F7079206461746100000000ACC0072082
:1039A000A5C6000070B504460D4609480078A0423F
:1039B0000DDD07484078A84209DD06480570064835
:1039C00004700649095D2944C8B2FFF71FFB70BDAA
:1039D00078CE0720B5C00720B4C00720B6C00720A6
:1039E0002DE9F05F82460D4616461C460AAF97E861
:1039F000800B294880F803A0057146718471C77156
:103A000080F8088080F8099080F80AB022490E9862
:103A1000C8720F98087310984873FF2C07D0FF2FB7
:103A200005D0B8F1FF0F02D0B9F1FF0F03D1042088
:103A30001949887012E00820174988700121204632
:103A4000FDF70CFE01213846FDF708FE0121404636
:103A5000FDF704FE01214846FDF700FE0121504616
:103A6000FDF7FCFD01212846FDF7F8FD0121304658
:103A7000FDF7F4FD01215846FDF7F0FD01210E98F8
:103A8000FDF7ECFD01210F98FDF7E8FD01211098ED
:103A9000FDF7E4FDBDE8F09F78CE072010B50224C5
:103AA000EDE040F6B83286A186A002F0D7FA0028F1
:103AB0007ED03220FDF7BEFA84A18748FCF7F8FCDF
:103AC000002836D085A18848FCF7F2FC18B183A005
:103AD000864908601DE086A18348FCF7E9FC18B11F
:103AE00083A08249086014E083A17F48FCF7E0FCD2
:103AF00018B181A07D4908600BE080A17A48FCF7ED
:103B0000D7FC18B17DA07949086002E073A077491D
:103B100008607E48007820B1FFF770FA7CA0FFF7BC
:103B2000A3FB72487FA10268022002F025FF01205A
:103B300010BD81A16848FCF7BBFC002823D080A100
:103B40006948FCF7B5FC10B17DA06849086080A108
:103B50006548FCF7ADFC18B17DA06449086002E03F
:103B60007FA0624908606948007820B1FFF746FAF3
:103B70007FA0FFF779FB5D486AA10268022002F08E
:103B8000FBFE0120D4E77FA15348FCF791FCA0B1D4
:103B90005AA0564908605D48007820B1FFF72EFA18
:103BA0007AA0FFF761FB51485EA10268022000E0A5
:103BB00063E002F0E1FE0120BAE778A14648FCF795
:103BC00077FC90B177A0494908605048007820B14F
:103BD000FFF714FA75A0FFF747FB444851A10268AC
:103BE000022002F0C9FE0120A2E774A13A48FCF7C6
:103BF0005FFC90B173A03D4908604448007820B153
:103C0000FFF7FCF972A0FFF72FFB384845A10268C7
:103C1000022002F0B1FE01208AE773A12E48FCF7D2
:103C200047FC90B171A0314908603848007820B154
:103C3000FFF7E4F96FA0FFF717FB2C4839A10268E2
:103C4000022002F099FE012072E76FA02749086068
:103C50002E48007868B1FFF7D1F96CA0FFF704FB9C
:103C60004FF4FA60FDF7E6F9FFF7C8F96CA0FFF72B
:103C7000FBFA6FA1022003F095F8601E84B2002CBD
:103C80003FF70FAF60A0194908602048007888B15D
:103C9000FFF7B4F96DA0FFF7E7FA4FF47A70FDF77C
:103CA000C9F9FFF7ABF95EA0FFF7DEFA4FF4FA604F
:103CB000FDF7C0F95EA1022003F074F8002037E799
:103CC0004F4B000041542B5153504E00566F6461CE
:103CD000666F6E650000000026CF07206D326D69AB
:103CE0007361666500000000A1C9072070C007204D
:103CF000494F542E434F4D00777777006D326D2E2C
:103D0000736B796D65742E636F6D0000BAC0072008
:103D10004F70657261746F723A0A566F6461666FB4
:103D20006E65000041504E2061737369676E696E65
:103D3000673A25730A0D000061697274656C0000B2
:103D400061697274656C696F742E636F6D00000039
:103D500041495254454C494F542E434F4D000000A9
:103D600061697274656C677072732E636F6D0000A9
:103D70004F70657261746F723A0A41697274656C52
:103D80000000000049646561000000004F7065722A
:103D900061746F723A0A49646561000042534E4C87
:103DA0000000000062736E6C6E6574004F70657287
:103DB00061746F723A0A42534E4C0000494F545599
:103DC000524C0000494F5455524C2E434F4D000069
:103DD0004F70657261746F723A0A494F5455524C74
:103DE0002E434F4D000000004A696F006A696F63FF
:103DF000696F74004F70657261746F723A0A4A6934
:103E00006F203447000000004E41000041542072F2
:103E10006573706F6E73200A206661696C730000B1
:103E20004F70657261746F723A0A4E410000000073
:103E30004F70657261746F72206E6F742064657468
:103E400065637465642E0D0A00000000726574726B
:103E500079200A206661696C7300000070B510213A
:103E60002548FCF77EFC052541E041F2707223A154
:103E700023A002F0F3F8002837D03220FDF7DAF85B
:103E800000242DE02048005D302827DB1E48005D1F
:103E9000392823DC1C4801190F221748FCF7AAFC1B
:103EA00000201549C8731848FCF738FB84B217483E
:103EB000007888B1FFF7A2F80020FFF76BF914A093
:103EC000FFF7D2F90120FFF765F90B4914A0FFF7BE
:103ED000CBF9C820FDF7AEF8012070BD601C84B29C
:103EE0000948FCF71BFBA042CCD8681E85B2002D08
:103EF000BBDC0020F1E7000005C907204F4B0000A4
:103F000041542B47534E000026CF0720BAC007204C
:103F100044657669636520494D45493A00000000D3
:103F2000257300007FB50026002500240F26A3E19D
:103F300040F6B832E1A1E2A002F090F800287CD06F
:103F40000A20FDF777F8E0A1E048FCF7BFF9E04967
:103F50000860DDA10020FCF7B9F9DD490860DDA1AA
:103F6000DB480068FCF7B2F9D949086008460168E7
:103F7000D948FCF7AFFAD648D8A10268022002F06F
:103F8000FBFCD54ADCA1022002F0F6FC00250AE089
:103F9000CF480068405D303804EB840100EB4100FD
:103FA00084B2681C85B2CA480068FCF7B7FAA84218
:103FB000EED8632C37D1D9A1DB48FCF78BFADB486C
:103FC000007878B1FFF71AF80020FFF7E3F8C2494C
:103FD000D7A0FFF749F90120FFF7DCF8D249D8A0B4
:103FE000FFF742F9D74801F073FCD7A1022002F095
:103FF000D9FE4FF40071DE48FCF7B3FBD14840789E
:10400000D0498978CF4AD288CDE90204CDE9002190
:10401000CC4843790279D749D548FCF7F1F8D6A1C5
:10402000D348FCF791FF002C39D1D5A1BE48FCF74D
:1040300051FABE48007888B100E01BE1FEF7DEFFD0
:104040000020FFF7A7F8A449B9A0FFF70DF9012058
:10405000FFF7A0F8B449BAA0FFF706F9B94801F094
:1040600037FCC9A1022002F09DFE4FF40071C04848
:10407000FCF777FBB3484078B2498978B14AD288D7
:10408000CDE90204CDE90021AE4843790279C5A10A
:10409000B748FCF7B5F8B8A1B548FCF755FF012CB7
:1040A00039D1052C37DCB6A19F48FCF713FA9F489D
:1040B000007878B1FEF7A2FF0020FFF76BF8864981
:1040C0009BA0FFF7D1F80120FFF764F896499CA068
:1040D000FFF7CAF89B4801F0FBFBABA1022002F0FE
:1040E00061FE4FF40071A248FCF73BFB9548407815
:1040F00094498978934AD288CDE90204CDE9002118
:10410000904843790279A7A19948FCF779F89AA1D8
:104110009748FCF719FF1F2C19D1B2A18248FCF770
:10412000D9F98248007878B1FEF768FF0020FFF7E0
:1041300031F869497EA0FFF797F80120FFF72AF8C8
:1041400079497FA0FFF790F8012004B070BD062CDC
:1041500039DB092C37DCA6A17348FCF7BBF973489F
:10416000007878B1FEF74AFF0020FFF713F85A49AC
:104170006FA0FFF779F80120FFF70CF86A4970A0EB
:10418000FFF772F86F4801F0A3FB9CA1022002F038
:1041900009FE4FF400717648FCF7E3FA694841786C
:1041A0008078684AD28801AB13C30092654843798E
:1041B00002799A496E48FCF723F86FA16C48FCF726
:1041C000C3FE0120C1E70A2C1ADB0E2C18DC3BA130
:1041D0005548FCF77FF95548007878B1FEF70EFF97
:1041E0000020FEF7D7FF3C4951A0FFF73DF8012022
:1041F000FEF7D0FF4C4952A0FFF736F80120A4E7A4
:104200000F2C1ADB132C18DC85A14748FCF762F948
:104210004648007878B1FEF7F1FE0020FEF7BAFFBD
:104220002D4943A0FFF720F80120FEF7B3FF3E49D8
:1042300043A0FFF719F8012087E7142C1ADB1E2C86
:1042400018DC68A13848FCF745F93848007878B19F
:10425000FEF7D4FE0020FEF79DFF1F4934A0FFF7B4
:1042600003F80120FEF796FF2F4935A0FEF7FCFF6B
:1042700001206AE7701E86B2002E3FF759AE6AA190
:10428000022002F08FFD2948007868B1FEF7B6FEE3
:104290000020FEF77FFF6BA0FEF7E6FF0120FEF790
:1042A00079FF6CA0FEF7E0FF6DA11F48FCF712F943
:1042B00007206E490860002047E700004F4B0000D0
:1042C00041542B43535100003A20000026CF0720D1
:1042D00074C007202C0000006AC007205369676E75
:1042E000616C20537472656E6774682056616C75DA
:1042F000653A2025730D0A00427566666572205383
:1043000069676E616C20537472656E6774682056BD
:10431000616C75653A2025730D0A00006E6F74207C
:10432000417661696C0000002EC90720BAC00720E1
:104330005369676E616C20516C74793A2025730063
:104340002573000008C60720205369676E616C2042
:10435000737472656E677468206973204E4F5420C1
:1043600044455445435441424C45200D0A00000049
:10437000B0C90720E0F801006572722E74787400ED
:10438000706F6F7200000000205369676E616C20CF
:10439000737472656E67746820697320506F6F72F2
:1043A000200D0A005B253032642F253032642F2522
:1043B000643B253032643A253032645D3A5B4552C5
:1043C000524F525D3A5369676E616C207374726527
:1043D0006E676820697320506F6F723A2025643BC6
:1043E00000000000457863656C6C656E7400000029
:1043F0004D617267696E616C00000000205369674F
:104400006E616C20737472656E67746820697320C6
:104410004D617267696E616C200D0A0074F90100CC
:10442000474F4F44000000005369676E616C205194
:104430006C74793A204E6F207369676E616C0D0A57
:10444000000000005369676E616C20516C74793A0A
:10445000000000004E6F206E7477726B0000000049
:104460006E6F206E7477726B0000000088C00720AA
:1044700070B500244FF496722EA131A001F0EEFD2C
:1044800030B94FF4967231A12DA001F0E7FD60B173
:1044900031A1022002F086FC32A1012002F082FC50
:1044A0004FF47A7132A003F0FBF832A1022002F03F
:1044B00079FC3EE00A253AE02FA1022002F072FCCE
:1044C0003448007838B1FEF799FD0020FEF762FE0F
:1044D00031A0FEF7C9FE03F020F84FF4967224A134
:1044E00031A001F0BBFDB8B14FF4967220A12FA00E
:1044F00001F0B4FD80B12FA1022002F053FC254849
:10450000007840B10120FEF745FE31A0FEF7ACFE79
:104510006420FCF78FFD01243CB1FFF79FFC0446AB
:104520000CB1012070BD0020FCE7681EC5B2002D53
:10453000C2DCBFE72B434D45453A20310000000067
:1045400041542B434D45453F000000002B434D4552
:10455000453A20300000000041542B434D45453D75
:10456000320D0A0041542B434D45453D320D0000AC
:104570004F4B00000D0A0000496E697469616C6957
:1045800073696E6720415420656E67696E652E2ED3
:104590002E0D0A00BAC007206D6F64656D20696E2C
:1045A00069742E2E00000000415400004154453132
:1045B00000000000415420656E67696E6520696ED9
:1045C000697469616C697365642E0D0A00000000EE
:1045D0004F4B210010B50B4C0BA1022002F0E2FB67
:1045E0000CA1012002F0DEFB40F6B8310CA003F074
:1045F00057F82146022002F0D5FB204602F0DAFEF1
:1046000010BD000026CF072041542B43434C4B3FA5
:104610000D0A000041542B43434C4B3F0D0000005A
:104620004F4B000010B528A1022002F0BBFB2C4824
:10463000007838B1FEF7E2FC0020FEF7ABFD29A0C0
:10464000FEF712FE02F069FF022438E043F69822DA
:1046500028A129A001F002FD90B12AA1022002F0B8
:10466000A1FB1F48007848B10120FEF793FD2AA066
:10467000FEF7FAFD40F6B830FCF7DCFC012010BD77
:104680000320FCF7E3FC43F698221AA125A001F0D1
:10469000E5FC90B126A1022002F084FB10480078CE
:1046A00048B10120FEF776FD27A0FEF7DDFD4FF4AF
:1046B000FA50FCF7BFFC0120E1E7601EC4B2002CF9
:1046C000C4DC0020DBE700005365742046756E747F
:1046D000696F6E616C6974792E2E2E0D0A000000D0
:1046E000BAC0072046756E74696F6E616C69747923
:1046F0002E2E2E004F4B000041542B4346554E3D6D
:10470000300000002B2B204D696E696D756D202BDC
:104710002B2E2E2E0D0A00002B204D696E696D7513
:104720006D202B0041542B4346554E3D3100000077
:104730002B2B2046756C6C206D6F6465202B2B2E07
:104740002E2E0D0A000000002B2046756C6C206D8B
:104750006F6465202B0000002DE9FC4781460D4663
:104760001646B046002703E0002008F8010B7F1C26
:104770001D4800686843B842F6D80A2028218023E3
:104780002A46CDE90010184801684846FCF796FE15
:104790001F2316484FF40021026815480068FEF7F1
:1047A0005BF90446ECB91048006800FB05F332469B
:1047B0004FF480110F480068FEF74EF9044684B9A3
:1047C0000D230A484FF4801102680A480068FEF77A
:1047D00043F904462CB905480068007B08B16FF026
:1047E00009042046BDE8FC8760C6072050C60720A4
:1047F0003CC6072038C607202DE9FC4106460D4679
:1048000017460A202A2100232A46CDE9001018481D
:1048100001683046FCF752FE1F2316484FF4002172
:10482000026815480068FEF717F90446ECB910480D
:10483000006800FB05F33A464FF400210E4800687B
:10484000FEF70AF9044684B90D230A484FF4801193
:1048500002680A480068FEF7FFF804462CB90548CC
:104860000068007B08B16FF009042046BDE8FC81B8
:1048700060C6072050C607203CC6072038C6072060
:104880001CB507480068012100231A46CDE9001035
:10489000FE21A120FDF7F6FD044620461CBD0000C8
:1048A00050C607201CB50620032180230022CDE935
:1048B000001011461046FCF701FE1F2313484FF469
:1048C0000021026812480068FEF7C6F80446DCB909
:1048D00012230E484FF4801102680E480068FEF75C
:1048E000BBF8044684B90D2308484FF480110268D0
:1048F00008480068FEF7B0F804462CB90348006881
:10490000007B08B16FF0090420461CBD50C607208B
:104910003CC6072038C607202DE9F04105460E4663
:104920001746FFF7ADFF4FF050080AE000F05AF9C4
:10493000044604B908E0FFF7B5FFA8F1010000F054
:10494000FF08B8F1000FF1D100BF3CB122460AA127
:10495000022002F011F82046BDE8F08129463046D9
:1049600000F0F8F804460B4928680860384600F063
:1049700013F804462046EFE7496E204D535F496E19
:1049800069742046756E6374696F6E2025640A0D24
:104990000000000060C607207CB5044606201221F6
:1049A00080230022CDE9001011461046FCF786FD59
:1049B0001F231C484FF4002102681B480068FEF7C3
:1049C0004BF805465DBB242316484FF4801102685E
:1049D00016480068FEF740F8054605BB74B100268E
:1049E0000AE010480068007804F8010B0D480068E0
:1049F000401C0C490860761C242EF2D30D23094874
:104A00004FF48011026809480068FEF725F8054652
:104A10002DB904480068007B08B16FF009052846ED
:104A20007CBD000050C607203CC6072038C60720C2
:104A300070B53648046800256078022802D06FF00F
:104A40000A0070BD2078044448E06078042802D051
:104A500005283FD10CE06079082808D1A079062804
:104A600005D1E079502802D101252078044434E0B2
:104A7000E07800F00300022829D1A07800F080003F
:104A800090B1201D00F0CCFFA17801F07F01012240
:104A900042EAC11141F4805141EA00401C490968D1
:104AA00008602078044414E0201D00F0B9FFA178CC
:104AB00001F07F01012242EAC11141F4006141EAA3
:104AC00000401449096808602078044401E0207817
:104AD000044402E02078044400BF00BF0B48006893
:104AE000801C00F09DFF094909680844A042ACD130
:104AF0002DB109A1022002F055F90020A1E70EA175
:104B0000022002F04FF96FF00B009AE750C6072021
:104B100038C607203CC607204D6173732053746F5D
:104B2000726167652064657669636520636F6E6E88
:104B300065637465640A0D004E6F742061204D61D9
:104B400073732053746F726167652064657669635F
:104B5000650A0D007CB505460E460A2025218023F6
:104B60000022CDE9001011461046FCF7A7FC1F23D8
:104B700019484FF40021026818480068FDF76CFFDF
:104B800004463CBB082314485904026814480068D2
:104B9000FDF762FF0446ECB925B10F48006800F04C
:104BA0002FFF28602EB10C480068001D00F028FF80
:104BB00030600D2308484FF48011026808480068EF
:104BC000FDF74AFF04462CB903480068007B08B192
:104BD0006FF0090420467CBD50C607203CC6072064
:104BE00038C607201CB50620002101230A46CDE95E
:104BF00000100846FCF762FC1F230E484FF400210A
:104C000002680D480068FDF727FF044684B90D23AC
:104C100008484FF48011026808480068FDF71CFF3F
:104C200004462CB903480068007B08B16FF0090402
:104C300020461CBD50C607203CC6072038C60720AA
:104C400010B502F06AFC08A1022002F0ABF807A13F
:104C5000022002F0A7F805A1012002F0A3F80649FE
:104C600006A002F01DFD10BD0D0A000041542B519D
:104C7000494143543D310D00C0D401004F4B000069
:104C800010B56420FCF7D6F908A1022002F08AF8DA
:104C90000AA1012002F086F84FF47A710AA002F00E
:104CA000FFFC0AA1022002F07DF810BD41542B51F7
:104CB000504F57443D300D0A0000000041542B5125
:104CC000504F57443D300D004F4B00004D6F647501
:104CD0006C6520506F77657220446F776E0D0A0007
:104CE00070B501F043FD022606E007F0A9FA04467C
:104CF00004B103E0012070BD002EF6DC00BF02F01D
:104D00000CFC002C3DD02DA1022002F04BF83648BF
:104D1000007880B1FEF772F90020FEF73BFA33A06D
:104D2000FEF7A2FA0120FEF735FA34A0FEF79CFA4E
:104D3000C820FCF77FF93548006807F06BF9044696
:104D400002F0EBFB002C37D000F0FAF82F48006897
:104D5000FCF718FC0546032D03D12DA1022002F01B
:104D600021F8042D03D130A1022002F01BF800F03D
:104D700063FEC820FCF75EF9FCF752FCFFF760FF0A
:104D8000B9E732A1022002F00DF81748007888B187
:104D9000FEF734F90020FEF7FDF914A0FEF764FADF
:104DA0000120FEF7F7F933A0FEF75EFA4FF4FA6040
:104DB000FCF740F901209EE700209CE74D6F6465F9
:104DC0006D20456E67696E6520496E697469616C16
:104DD000697A6174696F6E20537563636573736676
:104DE000756C200D0A000000BAC007204D6F646585
:104DF0006D20456E67696E6500000000496E69743C
:104E000069616C697A6564202121000070C0072007
:104E10004750535309205374696C6C20706F776549
:104E200072204F4E200D0A0054494D455F53594E94
:104E30004348524F4E495A455F4E4F545F434F4D82
:104E4000504C455445200D0A000000004D6F64652C
:104E50006D20456E67696E6520496E697469616C85
:104E6000697A6174696F6E204661696C6564200DB2
:104E70000A0000004572726F7220436F6D6D2E2E16
:104E80002021210070B517A1022001F08BFF002125
:104E90003520FCF739FC4FF4FA50FCF7CBF817A19A
:104EA000022001F07FFF19A1012001F07BFF40F6F5
:104EB000B83119A002F0F4FB044684B917A102200E
:104EC00001F070FF01F04EFA0AF016F94FF4FA50B3
:104ED000FCF7B0F8FFF704FF0546284670BD2046F2
:104EE000FCE700004D4F44554C4520414354495682
:104EF0004154452E2E2E2E0D0A00000041542B51F8
:104F000053434C4B3D300D0A0000000041542B51DF
:104F100053434C4B3D300D004F4B00004D4F44551B
:104F20004C45204E4F54204143544956415445204E
:104F300050524F5045524C592E2E2E0D0A00000053
:104F400010B502F0EAFA09A1022001F02BFF08A136
:104F5000022001F027FF06A1012001F023FF49F6FE
:104F6000404107A002F09CFB10BD00000D0A0000AC
:104F700041542B514944454143543D310D000000FB
:104F80004F4B000010B512A1022001F00BFF16A13B
:104F9000022001F007FF18A1012001F003FF40F6F5
:104FA000B83118A002F07CFB0446C820FCF742F898
:104FB00044B101213520FCF7A7FB13A1022001F029
:104FC000F1FE03E016A1022001F0ECFE10BD00008E
:104FD0004D4F44554C452053455420534C45455066
:104FE0002E2E2E2E0D0A000041542B5153434C4BB4
:104FF0003D310D0A0000000041542B5153434C4BEE
:105000003D310D004F4B00004D4F44554C4520495C
:10501000444C45205354415445200D0A00000000E3
:105020004D4F44554C452041435449564520535417
:10503000415445200D0A000010B50021062002F061
:1050400091FC0221112002F08DFC0521132002F0B9
:1050500089FC112002F075FC10BD000070B50646F9
:10506000FBF750FEA0B91A48007820B1FDF7C6FF43
:1050700018A0FEF7F9F8022507E01B48006806F0C3
:10508000C9FF00B103E0002070BD002DF5DC0FE08A
:105090001648FDF7A5F904463220FBF7CBFF2CB1EB
:1050A000502211463046FCF7EDFD04462046EBE762
:1050B0000E48FDF795F904463220FBF7BBFF2CB1F3
:1050C000502211463046FCF7DDFD04462046DBE762
:1050D000BAC0072049502061737369676E2046612A
:1050E000696C65640000000070C007203DC907209E
:1050F00070B58AB00024C3A1022001F053FE02F073
:10510000FFFC00F025FD4FF40071C748FBF729FBB9
:10511000C648C749C74AC84BCDE90632CDE9081091
:10512000C64BC7484078C6498978C54AD288CDE978
:105130000403CDE90221C2484079C1490979C1A3DC
:10514000C24ACDE90010C249B748FBF759F8B64A40
:10515000C0A1022001F010FCC0A1B348FBF7F4FE8F
:1051600002F0CEFBC049087008460278BFA10220B9
:1051700001F002FC6420FBF75DFFC5A1022001F0F5
:1051800011FEAC4AC9A1022001F0F6FBA84ACCA14D
:10519000022001F0F1FBA74802F098FCCF4908601B
:1051A0000846CFA10268022001F0E6FBD448D5A151
:1051B0000268022001F0E0FBDA48DBA1026802206D
:1051C00001F0DAFBE048006840B9A748007828B948
:1051D000DE480078DE490978884278D1DD480068E9
:1051E0000BF002F90546DC4ADC4B0AF0EBFE6ED20E
:1051F00001F0BCFAFFF746FE9B49087008460078AC
:1052000000287DD005F052FF02240BE0D44800684E
:1052100006F000FF944908700846007800B103E0EA
:10522000601EC4B2002CF1DC00BF8F480078D0B102
:105230007D48FFF713FFCB49087008460078022825
:1052400007D008460078052803D0084600780028D3
:1052500042D1FBF779FD00283ED07348FFF7FEFEF0
:10526000C049087038E002F058F901F07BF809F005
:1052700043FF4FF4FA50FBF7DDFEFFF731FDB9496C
:1052800008700846007848B1B7A1022001F08AFDF5
:105290006548FFF7E3FEB34908701DE0FDF7AEFE79
:1052A0000020FDF777FFB8A0FDF7DEFF0120FDF736
:1052B00071FFBAA0FDF7D8FFC820FBF7BBFEB9A16C
:1052C000022001F06FFD0520A649087000E081E092
:1052D000BBA1022001F066FDA2480078022814D08C
:1052E000A0480078052810D09E48007868B1BE48D4
:1052F0000068092809D0BC4800680E2805D000E0E5
:105300005FE0B948006806283AD1B8A1022001F050
:1053100049FDBBA14448FBF717FE4FF40071BB48A1
:10532000FBF71FFA464800F0D3FAB948007808B3F3
:10533000FDF764FE0020FDF72DFFB6A0FDF794FFFA
:105340000120FDF727FFA8480168B6A0FDF78CFFF4
:105350004FF47A70FBF76EFE01F004F8FDF74EFE95
:105360000020FDF717FFB2A0FDF77EFF4FF47A7023
:10537000FBF760FE00207B4908700120AF49086000
:105380007848007810B93848007860B1FBF7BAFC6B
:1053900048B100F039FA08B1FFF71CF9FEF7C2FD79
:1053A0006420FBF747FE00F0E9FD08F03BF9FFF74A
:1053B000C7FD6420FBF73EFEFFF7E4FD01F0CEF9E8
:1053C00008E00520284908709DA1022001F0EAFCB0
:1053D00001F0C4F95D4800785D490978884203D13D
:1053E0002148007805280AD180A1022001F0DAFCCA
:1053F00083A10D48FBF7A8FD0120904908600AB081
:1054000070BD00000A0D202D2D2D2D205061636BE5
:1054100065744C6F6720696E74657276616C202DBF
:105420002D2D2D200A0D0000B6D007206AC00720C0
:1054300020C5072010C5072018C007201EC0072060
:1054400008C607204152472E322E340005C90720D6
:1054500048FB010025730A0D00000000706472769D
:105460002E7478740000000010C6072072657475F1
:10547000726E53746174757320666F72205772690F
:105480007465206C6F67203A202564200A0D0000A7
:105490000A0D202D2D2D2D205261696E2076616C14
:1054A0007565202D2D2D2D200A0D000020726169BB
:1054B0006E2076616C203A202573200A0D000000D2
:1054C00020506572696F646963207261696E20762D
:1054D000616C203A202573200A0D0000E0C50720EA
:1054E000207261696E20696E7465676572207661ED
:1054F0006C756520202020203A202564200A0D00AC
:10550000D8C50720207261696E207468726573685F
:105510006F6C642076616C75652031203A202564BB
:10552000200A0D00DCC50720207261696E207468B6
:10553000726573686F6C642076616C7565203220CB
:105540003A202564200A0D0014C6072095C00720C4
:1055500096C0072008C0072048E17A14AE47FD3FF7
:1055600070C007207EC007206D6F64756C65206178
:1055700063746976617465207375636365737366BC
:10558000756C6C79210D0A00504450204163746998
:10559000766174696F6E2E2E000000006661696C82
:1055A0006564000020504450206163746976617422
:1055B000696F6E206661696C6564200A0D000000E9
:1055C0000A0D202D2D2D2D205061636B65742073E5
:1055D000656E64696E67206661696C6564202D2D57
:1055E0002D2D200A0D00000088C007202077726949
:1055F000746520696E20506C6F67200A0D000000F2
:10560000706C6F672E74787400000000B0C90720BA
:10561000BAC00720506F7374206661696C6564209E
:1056200021000000457272203A202564000000002D
:105630004D6F6453687444776E000000D4C5072032
:105640006D6F64756C65205374696C6C20696E2095
:10565000536C656570206D6F64652C4E4F542077D8
:10566000616B65757020200A0D00000070B505465D
:105670000026FDF7C3FC042409E0F2B2E1B2E8B26F
:1056800005F00AFC761C3220FBF7D4FC641C0C2CC1
:10569000F3DB70BD10B500242C48007838B1FDF75D
:1056A000ADFC0020FDF776FD29A0FDF7DDFD0F2400
:1056B00038E001F032FFC820FBF7BCFC4FF49672D3
:1056C00028A12BA000F0CAFC88B12CA1022001F077
:1056D00069FB1E48007840B10120FDF75BFD2EA05C
:1056E000FDF7C2FD6420FBF7A5FC012010BD4FF4BF
:1056F00096722DA11EA000F0B1FC88B12DA1022050
:1057000001F050FB1148007840B10120FDF742FD47
:105710002EA0FDF7A9FD6420FBF78CFC0120E5E736
:10572000601EC4B2002CC4DC2BA1022001F03AFBA5
:105730000648007828B10120FDF72CFD2CA0FDF7CC
:1057400093FD06202F4908600020CFE7BAC007204C
:105750004E7477726B207365726368696E672E2E64
:10576000000000002B435245473A20302C35000002
:1057700041542B435245473F000000004E6574776B
:105780006F726B20666F756E642C20726F616D692D
:105790006E6720210D0A0000726F616D696E672CC3
:1057A000206F6B21000000002B435245473A203008
:1057B0002C3100004E6574776F726B20666F756ECA
:1057C000642C20686F6D6520210D0A00686F6D657F
:1057D0002C206F6B210000004E6574776F726B2078
:1057E0006E6F7420666F756E6420210D0A000000D4
:1057F000526567204E6574776F726B204572722117
:105800000000000088C0072010B501F086FE10A13E
:10581000022001F0C7FA11A1012001F0C3FA40F6FD
:10582000B83111A001F03CFF78B912A1022001F0BB
:10583000B9FA13A1012001F0B5FA40F6B83113A06E
:1058400001F02EFFFEF7EEFE10BD0120FCE7000088
:1058500041542B43545A553F0D0A000041542B43E9
:10586000545A553F0D0000002B43545A553A2033EB
:105870000000000041542B43545A553D330D0A009B
:1058800041542B43545A553D330D00004F4B0000FB
:1058900010B5FDF7D9FA04460CB1012010BD002067
:1058A000FCE70000014A107470470000004002400D
:1058B000012002490870022008737047004002402E
:1058C000024909780143014A1170704700400240C3
:1058D0000D4991F8201001700B4991F82410417086
:1058E000094991F828108170074991F83010C1706A
:1058F000054991F82C100171034991F83810417154
:105900000149898FC1807047004002400146044828
:105910000078084008B1012070470020FCE7000033
:105920000040024000B50120FFF7F0FF10B1012058
:10593000FFF7C6FF01200149086000BD8CC10720A8
:1059400010B500201049086001214802FBF78AF9D0
:105950000E48007800F0100038B10C48007840F094
:1059600010000A495C3981F85C00002007495C3965
:10597000087408700872087308640846007A40F0DA
:105980000100087210BD00008CC107205C4002407D
:105990000448007840F001000249087000200873B4
:1059A00070470000004002400146024A02EB8102BB
:1059B000106870474440024001780C4A11704178E9
:1059C000121D11708178121D1170C178074A1032B2
:1059D00011700179121F11704179044A1832117047
:1059E000C188024A203A9187704700002040024057
:1059F000024A02EB800211607047000044400240FE
:105A000008B50146C8788DF8000088788DF8010047
:105A100048788DF8020008788DF80300009808BDDA
:105A200008B5014608788DF8000048788DF8010027
:105A3000BDF8000008BD000010B52A48007838B154
:105A4000FDF7DCFA0020FDF7A5FB27A0FDF70CFC15
:105A500028A1022001F0A6F927A1022001F0A2F955
:105A600025A1012001F09EF940F6B83128A001F0EF
:105A700017FE40F6B830FBF7DDFA05241DE001F013
:105A80004CFD24A1022001F08DF922A1012001F09A
:105A900089F940F6B83124A001F002FE38B125485A
:105AA00009F044FB2448006808B1012010BD4FF400
:105AB000FA70FBF7BFFA601EC4B2002CDFDC1FA136
:105AC0001F48FAF707FD1DA11E48FAF703FD1BA1A9
:105AD0001D48FAF7FFFC19A11C48FAF7FBFC00204F
