:020000040000FA
:0402FC00FFFFFFFF02
:020000040000FA
:1040000040D90720C5410000CD410000CF4100004C
:10401000D1410000D3410000D54100000000000064
:10402000000000000000000000000000D741000078
:10403000D941000000000000DB410000199400009D
:10404000DF410000DF410000DF410000DF410000F0
:10405000DF4100008D95000071960000DF410000F7
:1040600035970000DF410000DF410000DF41000024
:10407000DF410000DF410000DF410000DF410000C0
:10408000DF410000E18A0000A9500000D550000087
:10409000015100002D510000DF410000054C0000DF
:1040A000D59E0000DF410000DF410000DF4100003D
:1040B000DF410000DF410000DF410000DF41000080
:1040C000DF410000DF410000DF41000000F002F8A6
:1040D00000F069F80AA090E8000C82448344AAF139
:1040E0000107DA4501D100F05EF8AFF2090EBAE837
:1040F0000F0013F0010F18BFFB1A43F0010318471C
:10410000ECD001001CD1010010F8013B0A4413F06F
:10411000030408BF10F8014B1D1108BF10F8015B24
:10412000641E05D010F8016B641E01F8016BF9D113
:10413000002D15D010F8014B03F00C030C2BA1EB54
:1041400004040ABF10F8013BA4EB8314A4EB03247E
:1041500005F1010314F8016B5B1E01F8016BF9D541
:10416000914238BF10F8013BD1D37047002300249F
:1041700000250026103A28BF78C1FBD8520728BF77
:1041800030C148BF0B607047642900F09F806329ED
:1041900000F02584732900F02A84002070471FB5A1
:1041A0001FBD10B510BD00F0B0FC1146FFF7F7FFC2
:1041B00009F044FC00F0CEFC03B4FFF7F2FF03BCAF
:1041C00000F07AFC0948804709480047FEE7FEE70F
:1041D000FEE7FEE7FEE7FEE7FEE7FEE7FEE7FEE7B7
:1041E00004480549034A054B7047000065940000E8
:1041F000CD40000040D7072040D9072040D70720F6
:104200000FB41CB5084B06AA7B446946009005987C
:1042100000F0C3FB04460020694600F0D1FB2046B5
:104220001CBC5DF814FB0000B507000070B5044627
:1042300085690068C10601D5302600E02026C00748
:1042400007D070BDD4E9012130469047206A401C58
:1042500020626D1EF6D570BD70B504468569007884
:10426000C00707D170BDD4E9012120209047206A02
:10427000401C20626D1EF6D570BD70B50C4605461B
:10428000012A05D02878800600D5EA69002302E0DB
:10429000012305E05B1C934202D2E05C0028F9D1C7
:1042A000A869E618C01AA861286A18442862284636
:1042B000FFF7BCFF04E0D5E9012114F8010B90479A
:1042C000B442F8D32846FFF7C7FF70BD2DE9F0418F
:1042D0000646002410687529314616A510D0AFF3A4
:1042E0000080002802DA404213A507E031688A07FF
:1042F00001D512A502E0490704D511A5012401E06A
:10430000AFF3008000210A2206F1240709E0B0FB88
:10431000F2FCB0FBF2F302FB1C003030785418467C
:10432000491C0028F3D123462A463046BDE8F04117
:1043300000F0D5BA000000002D0000002B000000A6
:10434000200000002DE9F05F894604464FF0000A86
:10435000DFF824B1FB44C0F820A02046E16888477C
:1043600000287DD0252806D0D4E901219047206A75
:10437000401C2062F1E700255F462046E16888473F
:104380002028064607DB312E05D2B81910F8200C7C
:1043900008B10543F1E7A80701D525F00405C4F8E5
:1043A0001CA00027C4F818A02A2E09D0304606F019
:1043B0002FF938B304EB8708303EC8F8186019E0CD
:1043C00059F8041B204604EB87029161E168884795
:1043D000012F064618D1E069002820DA25F02005D3
:1043E0001DE0D8F8180000EB800006EB40003038E4
:1043F000C8F818002046E1688847064606F008F924
:104400000028EED1012F0AD02E2E08D12046E168D7
:1044100088477F1C0646022F45F02005C4DBA069B3
:10442000002803DA404245F00105A061E80701D009
:1044300025F01005A6B1A6F14100192802D82036B2
:1044400045F400654A463146204625604D46FFF753
:104450009BFE60B1012807D0ED1D25F0070000E0AC
:1044600007E000F1080978E705F1040975E730462F
:104470007AE7206ABDE8F09F4ECB0100014A00F0C8
:10448000BBBA000078C60720401ECAB210F8011F50
:104490008A4202D00029F9D10020704730B5054684
:1044A0000B462A4613F8014B12F8010B08B1A04243
:1044B000F8D01CB1002802D06D1CF1E7284630BDB1
:1044C00040EA0103024630B59B0710D14FF001349A
:1044D00000E008C208C91D1B9D4315EAC41FF8D09F
:1044E00013F0FF0102F8011B0DD01B0AF8E711F8C9
:1044F000013B002B02F8013B05D011F8013B002BDA
:1045000002F8013BF3D130BD10B5431C02E010F8B6
:10451000011B71B18107FAD14FF0013202C88C1A28
:104520008C4314EAC211F9D0C01A0A0603D0C01E87
:1045300010BDC01A10BD0A0401D0801E10BD0902B2
:10454000FCD0401E10BD40EA010370B59B072ED180
:104550004FF00136042A2AD308C810C99D1B9D4379
:10456000121F15EAC61517D0D8B2E1B2401A50EAA8
:10457000056110D198B2A1B2401A50EA05410AD1A2
:1045800023F07F4024F07F41401A50EA052102D1F8
:10459000180EA0EB146070BDA342DBD018BA21BA8C
:1045A000884201D9012070BD4FF0FF3070BD0AB9BB
:1045B000002070BD10F8013B11F8014B63B1A3421C
:1045C0000AD1521E08D010F8013B11F8014B1BB163
:1045D000A34201D1521EEDD1181B70BD032A40F237
:1045E000308010F0030C00F0158011F8013BBCF195
:1045F000020F624498BF11F801CB00F8013B38BFAD
:1046000011F8013BA2F1040298BF00F801CB38BFBA
:1046100000F8013B11F0030300F06780083AC0F096
:10462000088051F8043B083A51F804CBA0E8081080
:10463000F5E7121D5CBF51F8043B40F8043BAFF3B3
:104640000080D20724BF11F8013B11F801CB48BF0D
:1046500011F8012B24BF00F8013B00F801CB48BF43
:1046600000F8012B7047431A28BF9A427FF6B6AF75
:10467000032A1044114440F2268010F0030F1EBF9D
:1046800011F8013D521E00F8013D10F0030F7FF4B8
:10469000F6AF11F0030300F0E481083AC0F00B809C
:1046A00051F8043D083A51F804CD40F8043D40F873
:1046B00004CDFFF7F3BF121D5CBF51F8043D40F875
:1046C000043DAFF30080D20724BF11F8013D11F87B
:1046D00001CD48BF11F8012C24BF00F8013D00F8BE
:1046E00001CD48BF00F8012C704710B5203AC0F04A
:1046F0000B80B1E81850203AA0E81850B1E81850E3
:10470000A0E81850BFF4F5AF5FEA027C24BFB1E81F
:104710001850A0E8185044BF18C918C0BDE8104090
:104720005FEA827C24BF51F8043B40F8043B08BF99
:104730007047D20728BF31F8023B48BF11F8012B60
:1047400028BF20F8023B48BF00F8012B70474FF00C
:1047500000020429C0F0128010F0030C00F01B804E
:10476000CCF1040CBCF1020F18BF00F8012BA8BF5C
:1047700020F8022BA1EB0C0100F00DB85FEAC17C20
:1047800024BF00F8012B00F8012B48BF00F8012BD3
:1047900070474FF0000200B5134694469646203904
:1047A00022BFA0E80C50A0E80C50B1F12001BFF4EA
:1047B000F7AF090728BFA0E80C5048BF0CC05DF850
:1047C00004EB890028BF40F8042B08BF704748BF9E
:1047D00020F8022B11F0804F18BF00F8012B704712
:1047E00010B5044610F0030F08BF11F0030F40F09E
:1047F00015804FF0013E121FC0F20E8051F8043BAD
:10480000A3EB0E0C2CEA030C1CEACE1C08BF40F8EC
:10481000043BF0D0A1F1040102F10402521E08DBB6
:1048200011F8013B002B00F8013BF7D11146FFF7CF
:104830008EFF204610BD00004FF0013C50F8042BC5
:1048400051F8043B9A4221D1A2EB0C03934313EAA3
:10485000CC1317D150F8042B51F8043B9A4215D1D0
:10486000A2EB0C03934313EACC130BD150F8042BA7
:1048700051F8043B9A4209D1A2EB0C03934313EA8B
:10488000CC13DBD04FF00000704700BFD01A01BA44
:10489000B1FA81F101F0180122FA01F0CB40C1F127
:1048A0002001DBB2C0B2C01A2CFA01F3D11A914335
:1048B00011EAC311E6D17047704770477047000096
:1048C00000487047DCD6072010B5FFF7F9FF0068F5
:1048D00010BD10B50446FFF7F3FF046010BD2DE9CD
:1048E000F0470D4699469246044600F124080168B7
:1048F000880604D5E06921F01001216000E0012064
:10490000A84201DD471B00E00027A1697A1902EBEC
:104910000900081AA0612078C00602D42046FFF7DB
:1049200085FC002608E0D4E901211AF8060090472A
:10493000206A401C761C20624E45F4DB2078C006BD
:104940000AD52046FFF772FC06E0D4E901213020A9
:104950009047206A401C2062381EA7F10107F4DC52
:1049600007E0D4E9012118F805009047206A401CAF
:104970002062281EA5F10105F3DC2046FFF76CFC40
:104980002078000602D50220BDE8F0870120FBE771
:1049900001694A1C02610878704700B58FB0CDE903
:1049A00001310021059105497944CDE903101146F3
:1049B0006846FFF7C7FC0FB000BD0000E5FFFFFF32
:1049C0000A6802F8010B0A60704710B5436913B119
:1049D000AFF3008001E0FFF750FC012010BD12781A
:1049E00000F124010A7000224A700122EDE71168EB
:1049F0004FF0FF32E9E700002DE9F04115460E4681
:104A0000040002D12C6804B90BA4204600F06EF813
:104A10000444207870B127463146384600F056F8F5
:104A20000444207810B1002004F8010B38462C60B3
:104A3000BDE8F0810027F9E700000000431A28BF15
:104A40009A427FF652AE104410F0030F11441EBF7D
:104A500011F8013D521E00F8013D10F0030F7FF4E4
:104A6000F6AF103AC0F00A8010B531E91850103A8C
:104A700020E91850BFF4F9AFBDE81040530724BF38
:104A800031E9081020E9081044BF51F8043D40F80E
:104A9000043D12F0030F08BF7047D20728BF31F85A
:104AA000023D48BF11F8012C28BF20F8023D48BF45
:104AB00000F8012C7047000001491820ABBEFEE74A
:104AC0002600020000487047DCD6072030B50346B8
:104AD0001D781DB10A4603E0AC4201D1181A30BD61
:104AE00012F8014B002CF7D15B1CF1E730B50346FF
:104AF0001D783DB10A4612F8014B1CB1AC42FAD107
:104B00005B1CF5E7181A30BD70477546FFF7DAFFF2
:104B1000AE4605006946534620F00700854618B0AA
:104B200020B5FFF75DFBBDE820404FF000064FF0D9
:104B300000074FF000084FF0000B21F00701AC46D2
:104B4000ACE8C009ACE8C009ACE8C009ACE8C009F1
:104B50008D46704710B50446AFF300802046BDE88F
:104B60001040FFF729BB000070B50446082C25D281
:104B7000144A02EB44025178124A12F8140000F071
:104B80005BFC1148006820F0FF010120A0400143B8
:104B90000D4801600A2000F083F90B48006840F0DE
:104BA00080700949086000BF07484068C00F0028AE
:104BB000FAD005484068C0F30B1500E000252846F0
:104BC00070BD0000722301000040034010B50A4888
:104BD000006840F480500849C439C1F8C40005F0A9
:104BE0001FFD04460548B4FBF0F0401E040244F4E7
:104BF00000100349086010BDC4C00F4040420F00C0
:104C000000400340704700000D48006820F0080095
:104C10000B49C039C1F8C000172000280DDB00BFC8
:104C200000BF00F01F02012191404209920002F1F1
:104C3000E022C2F8001100BF00BF00BF70470000B3
:104C4000C0C00F4010B59F210348FFF780FD002032
:104C50000249086010BD000026CF0720A4C107202C
:104C6000012909D10A4A12680A4B03401A43084B2A
:104C7000C43BC3F8C42009E041B9054A1268054B9A
:104C800083431A40024BC43BC3F8C4207047000062
:104C9000C4C00F40DEF7EFEF10B50A46202801D25E
:104CA000034601E0A0F120031946202810D2124B40
:104CB0001B6803248C40A343104CC4F8A8310E4B4E
:104CC0001B6802FA01F423430C4CC4F8A83111E02C
:104CD000094B1B1D1B6803248C40A343074CC4F8DD
:104CE000AC31054B1B1D1B6802FA01F42343034C36
:104CF000C4F8AC3110BD0000A8C10F4000C00F4087
:104D000010B505A1012004F0C7FF40F6B83105A099
:104D100005F0EEFA10BD000041542B5149414354B7
:104D20003F0D00002B51494143543A20312C3100B2
:104D300010B505A1012004F0AFFF40F6B83105A081
:104D400005F0D6FA10BD000041542B51495354418F
:104D500054450D004F4B000010B50021422000F0DB
:104D60006BFB0121422000F04DFB0021352000F0BB
:104D700063FB0121352000F045FB00213A2000F0C3
:104D80005BFB01213A2000F03DFB0021332000F0C5
:104D900053FB0121332000F035FB00213C2000F0C3
:104DA0004BFB01213C2000F02DFB032217210020AA
:104DB0000BF084FC0022172110460BF067FC032245
:104DC000182100200BF07AFC0022182110460BF06D
:104DD0005DFC10BD70B504460D4604F039FB0122A0
:104DE0001EA11F4807F0B2F91E4908700846007856
:104DF00010B10846007870BD122229461A4807F003
:104E0000CFF9184908700846007858B91648C168A3
:104E100007F042F8134908700846007810B11248AC
:104E200006F0FFFF1049204607F0BBFA0E490FA01D
:104E300007F0B7FA0B48007810B10A480078DAE7B3
:104E4000094806F0EEFF002204A1104607F07EF9A3
:104E500004F003FB03480078CDE7000000000000E9
:104E600070050010A0C50720180100100A000000FE
:104E700030B50446002504E04FF47A7000F010F8D5
:104E80006D1CA542F8D330BD30B50446002504E0C2
:104E90004FF47A70FFF7ECFF6D1CA542F8D330BDDC
:104EA0000021002200BF05E0002200E0521C062A7B
:104EB000FCD3491C8142F7D37047000000B58FB086
:104EC00003F016FF4FF400711848FFF740FC184834
:104ED000006818490968184A184BCDE90B32CDE92A
:104EE0000D10174917480068174A1268174BCDE98B
:104EF0000732CDE90901164A164B17484078164982
:104F00008978CDE90532CDE903101348C0881249EC
:104F10004979114A127911A3CDE900210290124A70
:104F200012490248FFF76CF90FB000BDB6D0072058
:104F300014C607208CC007209FC007209BC00720F5
:104F400097C00720DCC50720D8C507206AC0072006
:104F500018C007201EC0072008C607204152472E50
:104F6000322E322E3300000005C90720A81102009E
:104F700070B506460C4615462946204604F08AF9C7
:104F80000148066070BD0000C8C507202DE9F04744
:104F900004464FF00009A0251948006884422CD827
:104FA000E6B217480068B0F5006F02D9C4F30728CD
:104FB00004E0C4F3072745EA4700C5B204F0B8F996
:104FC000284604F001FA0E480068B0F5006F02D9D7
:104FD000404604F0F9F9304604F0F6F904F0A8F977
:104FE00045F0010004F0F0F9002004F069F9814671
:104FF00004F0C6F90A20FFF753FF4846BDE8F087E2
:10500000C8C5072070B506460D4600BF3046FFF7FD
:10501000BDFF04462C706D1C761C002CF6D170BDB3
:105020002DE9F04704460D46A02716480068844243
:1050300025D8E6B213480068B0F5006F02D9C4F372
:10504000072804E0C4F3072947EA4900C7B204F07F
:105050006FF9384604F0B8F90A480068B0F5006FF7
:1050600002D9404604F0B0F9304604F0ADF92846C4
:1050700004F0AAF904F084F90A20FFF7F9FEBDE86C
:10508000F0870000C8C5072070B505460C4600BF74
:1050900021782846FFF7C4FF641C6D1C14F8010C2E
:1050A0000028F5D170BD000010B50748006840F039
:1050B00001000649C1F840010548006810B10449E3
:1050C0000868804710BD000040C10F4000C00F407D
:1050D00024C0072010B50748006840F002000649C8
:1050E000C1F840010548806810B1044988688047CC
:1050F00010BD000040C10F4000C00F4024C0072079
:1051000010B50748006840F004000649C1F84001A6
:105110000548006910B104490869804710BD0000C6
:1051200040C10F4000C00F4024C0072010B5074801
:10513000006840F008000649C1F840010548806950
:1051400010B104498869804710BD000040C10F407C
:1051500000C00F4024C0072070B504460D46164617
:10516000042C70DA384901EBC4014879012100F0C0
:1051700063F9354901EBC40191F9040000280DDB06
:1051800000BF00BF00F01F020121914042099200C0
:1051900002F1E022C2F8001100BF00BF00BF2A48A0
:1051A00040F8345036B1012E16D0022E26D0032EF0
:1051B00048D135E0254801680120A04081432448BA
:1051C000C0F848112148001D00680121A140884312
:1051D0001F49C1F84C0135E01C4801680120A0407E
:1051E00081431B48C0F848111848001D0168012080
:1051F000A04001431648C0F84C1123E01348006852
:105200000121A14008431249C1F848010F48001D7F
:1052100001680120A04081430D48C0F84C1111E005
:105220000A4800680121A14008430949C1F8480122
:105230000648001D01680120A04001430448C0F851
:105240004C1100BF00BF70BD24C0072048C10F40F3
:1052500000C00F4010B50446042C0ADA054901EBE2
:10526000C4014879002100F0E7F80020014941F825
:10527000340010BD24C0072008B50146642048430F
:10528000009000BF0098421E00920028FAD1012031
:1052900008BD00002DE9F05F8046894616469A4613
:1052A000DDE90A5B002704E0002029490968C855A8
:1052B0007F1C1F2FF8D335B1032D08D0122D08D035
:1052C000252D08D101E0002408E0082406E012247E
:1052D00004E0242402E009FB06F400BF00BF1D49DE
:1052E0001B48006805F0CAF81B48016818480068A8
:1052F000001D05F0C3F8214615480068083005F088
:10530000BDF8BAF1010F01D1002000E0504610496C
:10531000096808730E48006880F80EB00C480068F1
:10532000C573032D01D0122D03D109490968CC742E
:1053300005E0414606480068113005F089F831461D
:1053400003480068163005F07BF8BDE8F09F0000C8
:1053500050C607205553424364C6072070B5054622
:1053600004F003FF13A1012004F096FC40F6B831CD
:1053700013A004F0BDFF08B9032070BD4FF4FA700C
:10538000FFF776FD02240EE04FF4FA620FA110A0A1
:1053900003F076FE08B10120EFE74FF4FA70FFF753
:1053A00067FD601EC4B2002CEEDCC820FFF760FD74
:1053B0000020E2E741542B514750533F0D000000BD
:1053C0002B514750533A2030000000004F4B000053
:1053D00041542B514750533D3100000010B505A1F9
:1053E000012004F059FC40F6B83105A004F080FF1C
:1053F00010BD000041542B51475053454E440D0001
:105400004F4B000030B50A46A02811DA431100F0D6
:105410001F00084C04EB43112AB10C68012585409C
:105420002C430C6004E00C6801258540AC430C6003
:1054300030BD000000C0092030B50A46A0281CDAA3
:10544000032A1AD8431100F01F005C06230E10280F
:1054500004DB5C1CE3B2A0F11004E0B24406200EB1
:10546000064C04EB8301032585400C68AC430C60BB
:1054700002FA00F50C682C430C6030BD00C00240FD
:1054800030B501460020A0290EDA4A1101F01F01B3
:10549000064C04EB42135C6901258D402C400CB195
:1054A000012400E00024204630BD000000C0092097
:1054B00030B50A46A02811DA431100F01F00084C4D
:1054C00004EB43112AB18C69012585402C438C6182
:1054D00004E0CC69012585402C43CC6130BD00003F
:1054E00000C0092010B508480068FFF737FF0749DA
:1054F000087007A1012004F0CFFB40F6B8310AA0E4
:1055000004F0F6FE10BD000070C007207EC007202A
:1055100041542B514750534346473D226E6D6561C0
:10552000737263222C310D004F4B000010B505A1A2
:10553000012004F0B1FB40F6B83106A004F0D8FE1B
:1055400010BD000041542B434D47443D312C340DD8
:105550000A0000004F4B000010B586B00446002042
:1055600008490860224608A101A8FEF749FE01A9E2
:10557000012004F091FB40F6B83106A004F0B8FE1B
:1055800006B010BD44C0072041542B434D47443D55
:1055900025640D004F4B000038B54FF4FA70FFF74B
:1055A00067FC4EA14E48FEF779FF00287ED004F03C
:1055B000DCFD00204B49086012E049484949096870
:1055C000405C0D2805D0464846490968405C0A28D9
:1055D00005D144480068401C4249086000E000E0F2
:1055E000EBE700BF04E03F480068401C3D4908600D
:1055F0003B483C490968405C2C28F4D13948006894
:10560000801C3849086000240BE03548354909689A
:10561000405C3549085533480068401C31490860F2
:10562000641C0C2CF1DD2F480068C01C2D4908605B
:10563000002400BF0BE02A482A490968405C2B4936
:10564000085528480068401C26490860641C0F2C37
:10565000F1DB22202549085500BF22480068401C84
:105660002049086008460068401E1D49085C0A2859
:10567000F3D100240BE01A481A490968405C1C4920
:10568000085518480068401C16490860641C1448F6
:1056900014490968405C0D28EDD1002011490860CB
:1056A0001349085513480068401C00E012E01149F6
:1056B00008604FF400711048FFF749F80C480A4B96
:1056C0000A4A0EA100900C48FEF79AFD0FA10A4865
:1056D000FFF780FB00201149087038BD2C00000046
:1056E00026CF072044C007207CC60720D4C6072049
:1056F0008AC6072048C00720E5C607205B25735DE2
:105700003B5B25735D3B257300000000726563768B
:105710005F534D532E7478740000000050C0072072
:105720003EB50446FFF78EFA224609A16846FEF709
:1057300067FD6946012004F0AFFA1920FFF798FBD6
:1057400040F6B83106A004F0D3FDFFF725FF3EBDBB
:1057500041542B434D47523D25640D0A0000000083
:105760002B434D4752000000F0B589B004460D466A
:10577000002600202549086004F0F7FC224624A1F9
:105780006846FEF73DFD6946012004F085FAC82011
:10579000FFF76EFB23E022481C490968405C3E2865
:1057A00018D10020194908601D48FEF7ADFE0746D4
:1057B00039461B48FEF7CBFF2946012004F06CFA5E
:1057C0001A21012004F0D2F9164917A004F090FD27
:1057D000064605E00D480068401C0C490860DAE701
:1057E00000BF4FF49670FFF743FB002007490860A5
:1057F0006846FEF789FE074639466846FEF7C9FF48
:1058000016B1012009B0F0BD0020FBE744C007201D
:1058100041542B434D47533D222573220D0A00006E
:1058200026CF0720C0D401004F4B00002DE9F047E0
:105830008CB0804689461746FA48007868B101F076
:1058400055F8002001F01EF9F7A001F085F90120BC
:1058500001F018F9F6A001F07FF904F086FC40464B
:10586000FEF752FE824650235246F4A105A8009747
:10587000FEF7C6FC05A9012004F00EFAF549F6A0D2
:1058800004F036FD002877D004F06FFC47F2305268
:10589000F3A1404603F0F4FBF2A1F448FEF7FEFD4D
:1058A00020B9F3A1F148FEF7F9FD58B1DD480078C1
:1058B00020B101F01BF8F0A001F04EF901200CB06E
:1058C000BDE8F08747F23052E9A1E6A004F02CFDD4
:1058D00006464EB1D348007820B101F007F8EBA09E
:1058E00001F03AF90120EAE7CE48007878B100F0FB
:1058F000FDFFEAA001F030F903F0C0FC00F0F6FF74
:10590000EAA001F029F94FF4FA70FFF7B1FA03F0B9
:10591000B5FC40F2BE20E84908604FF40071E7484A
:10592000FEF715FFE64803F0B1F8E3480368E448E2
:105930004078E3498978E24AD288CDE90203CDE98B
:105940000021DF4843790279DE49DC48FEF758FC44
:10595000DDA1DA48FFF73EFADDA1C448FEF79EFD5F
:1059600088B9DFA1C148FEF799FD60B9E0A1BF4841
:10597000FEF794FD38B900E0B8E0E4A1BB48FEF7BB
:105980008DFD00287ED003F079FC04F0EEFBD0A161
:10599000B648FEF783FD18B140F2BF20C649086043
:1059A000CFA1B248FEF77AFD18B140F2CA20C24931
:1059B0000860D6A1AD48FEF771FD18B140F2BE20D7
:1059C000BD4908604FF40071BC48FEF7C0FEBC48FA
:1059D00003F05CF8B8480368B9484078B84989785A
:1059E000B74AD288CDE90203CDE90021B448437912
:1059F0000279CC49B148FEF703FCB3A1AF48FFF7E9
:105A0000E9F903F03BFC0AF053FF42F21070FFF794
:105A10002FFA02F07BFC0546002D46D0404602F0EE
:105A20005DFD0446022C03D0052C01D0002C3AD198
:105A30007C48007890B100F059FF002001F022F876
:105A4000B9A001F089F800F051FF98A001F084F8A6
:105A50004FF4FA70FFF70CFA03F010FC4FF40071EA
:105A60009648FEF774FE964803F010F89448407884
:105A700093498978924AD288CDE9002102909048D2
:105A8000437900E0C5E00279ABA18C48FEF7B8FB92
:105A90008DA18A48FFF79EF94FF47A70FFF7E8F975
:105AA000052400200BE7012009E74FF4007183482B
:105AB000FEF74DFE824802F0E9FF814840788049B8
:105AC00089787F4AD288CDE9002102907C484379C9
:105AD0000279A7A17948FEF793FB7BA17748FFF7EE
:105AE00079F90020B24908600524E8E678A15F480A
:105AF000FEF7D4FC78B97AA15C48FEF7CFFC50B928
:105B00007BA15A48FEF7CAFC28B980A15748FEF786
:105B1000C5FC00287DD003F0B1FB04F026FB6CA18E
:105B20005248FEF7BBFC18B140F2BF206249086042
:105B30006BA14E48FEF7B2FC18B140F2CA205E4994
:105B4000086072A14948FEF7A9FC18B140F2BE20D6
:105B5000594908604FF400715848FEF7F8FD58485D
:105B600002F094FF544803685548407854498978B6
:105B7000534AD288CDE90203CDE900215048437948
:105B800002798C494D48FEF73BFB4FA14B48FFF78C
:105B900021F903F073FB0AF08BFE42F21070FFF75D
:105BA00067F902F0B3FB0546002D38D0404602F0FD
:105BB00095FC0446022C03D0052C01D0002C2FD1DB
:105BC0001848007838B100F091FE002000F05AFF2C
:105BD00055A000F0C1FF4FF400713848FEF7B7FD43
:105BE000374802F053FF364841788078344AD288EB
:105BF000CDE9002002913248437902794EA12F4825
:105C0000FEF7FEFA30A12D48FFF7E4F84FF47A7062
:105C100000E0F4E0FFF72CF9052400204FE6CDE08A
:105C2000CAE00000BAC0072053656E64696E670061
:105C30005061636B65742E2E2E00000041542B5171
:105C400048545450504F53543D25642C25642C2502
:105C5000640D0000C0D40100434F4E4E4543540034
:105C60004F4B00002C3230300000000026CF0720C0
:105C70002C33303200000000506F73742053756372
:105C80006365737320322F3300000000506F73740C
:105C9000205375636365737320212100506F737403
:105CA000206661696C2021210000000047534D20CF
:105CB0005368757444574E0088C00720B0C9072048
:105CC00008C60720181002006572722E74787400DE
:105CD0002B434D45204552524F523A203730330026
:105CE0002B434D45204552524F523A203731340014
:105CF0002B434D45204552524F523A204874747000
:105D000020646E73206572726F7200004D4F4445BF
:105D10004D5F524553504F4E53455F54494D454F8B
:105D2000555400008C0F020020506F737420666180
:105D3000696C6564202100005B253032642F2530BA
:105D400032642F25643B253032643A253032645D5D
:105D50003A5B4552524F525D3A7061636B657420F5
:105D600073656E64696E67206661696C65643B008B
:105D70005B253032642F253032642F25643B25307B
:105D800032643A253032645D3A5B4552524F525D7F
:105D90003A4D6F64756C6520696E697469616C69F0
:105DA0007A6174696F6E206661696C65643B00009E
:105DB0008CC00720480F0200012080E54FF40071DD
:105DC0001048FEF7C4FC104802F060FE0E4841780F
:105DD00080780D4AD288CDE9002002910A484379A3
:105DE00002790AA10748FEF70BFAAFF22411054821
:105DF000FEF7F0FF00201549086005245FE500BFAD
:105E00005DE50000B0C9072008C607205B253032D9
:105E1000642F253032642F25643B253032643A25C7
:105E20003032645D3A5B4552524F525D3A4D6F6479
:105E3000756C6520696E697469616C697A617469F1
:105E40006F6E20666169656C643B00008CC0072042
:105E500030B587B0044614A1012003F01DFF40F6C1
:105E6000B83118A004F044FA04F07FF92046FEF798
:105E70004BFB05462A4614A16846FEF7C1F9694660
:105E8000012003F009FF47F2305114A004F030FA6A
:105E900038B147F230520BA1204603F0F1F807B0B9
:105EA00030BD0020FBE7000041542B5148545450B2
:105EB0004346473D22636F6E746578746964222C93
:105EC000310D00004F4B000041542B5148545450A9
:105ED00055524C3D25642C33300D0000434F4E4E3F
:105EE000454354002DE9F84706460F46904699462B
:105EF000DDE9094A4B46424639463046009400F0F7
:105F000059F908231048002102681048006800F081
:105F100055FA0546A5B94CB123460B484FF48011FC
:105F200002680A48006800F049FA054645B90023AE
:105F30001A464FF400210548006800F03FFA054674
:105F40002846BDE8F887000050C6072034C6072061
:105F50002DE9F84706460F4690469946DDE9094A7D
:105F60004B46424639463046009400F023F9082358
:105F70001048002102681048006800F01FFA05462A
:105F8000A5B94CB123460B484FF4002102680A48DA
:105F9000006800F013FA054645B900231A464FF48D
:105FA00080110548006800F009FA05462846BDE85A
:105FB000F887000050C6072034C6072018B50446ED
:105FC0000020009006E04FF47A7000F007F8009887
:105FD000401C00900098A042F5D318BD08B50021E0
:105FE000009102E00099491C00918100009A9142C1
:105FF000F8D808BD0021016041608160C160704730
:106000007CB500F073FC002000F03CFD5AA000F0CD
:10601000A3FD002516E05B48006828B9012000F0C8
:1060200031FD59A000F098FD5648006828B10120C4
:1060300000F028FD58A000F08FFD4FF47A70FFF7B4
:10604000BDFF6D1C052DE6DB6420FFF7B7FF4D4853
:10605000006800F0010068B110205349486500BF96
:106060005148406D00F010000028F9D14FF4801025
:106070004D4948654348006800F0020068B11020AF
:106080004949886500BF4848806D00F0100000282D
:10609000F9D14FF4801044498865C820FFF78EFF7E
:1060A0004FF4002041490968086041480068082110
:1060B00000234A01CDE9001006218020FFF712FFDE
:1060C00004460CB120467CBD39480068C079000404
:1060D0003649096808600020009003460122052126
:1060E0000190FFF735FF04460CB12046EBE7022094
:1060F000FFF764FF2D480068006840F001002B495D
:10610000096808602A480068092100234FF40072DA
:10611000CDE9001006218020FFF7E4FE04460CB113
:106120002046D0E722480068801C02F057FD064652
:106130001F48006800234FF400720621CDE900607B
:106140008020FFF7CFFE04460CB12046BBE701F0EC
:10615000CFFF04460CB12046B5E70020009003466F
:10616000012209210190FFF7F3FE04466420FFF7A6
:1061700025FF2046A7E70000636F6E6E65637420FD
:106180005553420028C607206E6F7420636F6E6EF1
:106190006563746564000000636F6E6E65637420F0
:1061A000446F6E650000000000C0005034C6072038
:1061B00050C607202DE9F04305460E46174698467F
:1061C000DDF81C90002404E00020104909680855FF
:1061D000641C4C45F8DB0D48006805700B480068EE
:1061E0004670394609480068801C04F03FF9414672
:1061F00006480068001D04F039F949460348006864
:10620000801D04F033F9BDE8F083000050C607207C
:10621000002107E0002240F82120C0F88020C0F8CB
:106220008420491C2029F5D37047000030B5504820
:10623000006840F000404E49C439C1F8C4001F2036
:106240004C49086000BF4B48001D006800F01F006B
:106250001F28F8D10320484908604848406820F0CA
:106260007050464948600846406840F0A050486079
:10627000434C4448046004F580704349086004F5C9
:1062800088704249086004F590704149086004F53F
:1062900098704049086004F5A0703F49086004F513
:1062A000A8703E49086004F5E8703D49086004F5AF
:1062B00080503C49086036480068FFF79BFE35482F
:1062C0000068FFF797FE34480068FFF793FE2E48FA
:1062D000006800F0EBF82D48006800F0E7F8294866
:1062E0000068FFF795FF3220FFF768FE00202E4977
:1062F000486008628862012088602C48486308462C
:10630000406820F0C00040F0800048604FF48030CA
:1063100008651C48006888610846C068C968084369
:106320002149C86022480861182000280DDB00BF01
:1063300000BF00F01F02012191404209920002F1CA
:10634000E022C2F8001100BF00BF00BF18200021EA
:10635000002804DBCA06130E164A135406E0CA06C8
:10636000150E154A00F00F031B1FD55400BF30BD9A
:10637000C4C00F40F4CF005010C1005000C0024014
:106380000000082048C6072040C6072044C6072052
:1063900034C6072038C607203CC6072050C6072051
:1063A00054C6072058C6072000C00050DF2E7827AB
:1063B0005200008000E400E018ED00E01FB581B05D
:1063C000044635480068844209D1029818B94FF054
:1063D0000070009005E04FF04070009001E0002058
:1063E0000090029840F480200099084340F07040EB
:1063F0002A49096808600020294909680860274877
:106400000068426000202649096848602448006806
:106410002249096888600020214909688860581E5F
:1064200010441E490968C86000201D490968C860F9
:10643000A06800F00200194909680843A0601848E4
:10644000006860600020E0601348006884420CD15E
:1064500014480462806840F00200124988600846CF
:10646000406840F0100048600BE00E48846280688D
:1064700040F004000B4988600846406840F0200066
:10648000486000F019F80848007810B9002005B0FD
:1064900010BD4FF0FF30FAE734C6072040C6072092
:1064A00044C6072000C0005030C60720002101600C
:1064B00041608160C160704700BF044800680028E7
:1064C000FBD0002001490860704700002CC607205F
:1064D0000246022A09D111B90B4800687047012908
:1064E0000FD10948001F0068F8E752B919B90648EA
:1064F00020380068F2E7012903D1034824380068F6
:10650000ECE70020EAE70000A880024004480549C3
:106510000860401403498C39C1F8AC007047000092
:10652000FF8FFF7F8C80024010B55AB10B4B53F8A0
:1065300020301B6801248C402343084C54F8204031
:1065400023600AE0054B53F820301B6801248C407F
:10655000A343024C54F82040236010BD9C2401004A
:1065600030B50346BBB94AB92148006801248C40C4
:1065700020431F4C943CC4F8940026E0012A24D107
:106580001B48001F006801248C402043184C943C99
:10659000C4F8900019E0022B17D152B914482030EA
:1065A000046801208840044311489438C0F8B4407E
:1065B0000BE0012A09D10E481C30006801248C40F0
:1065C00020430B4C943CC4F8B000152000280DDB90
:1065D00000BF00BF00F01F050124AC404509AD001D
:1065E00005F1E025C5F8004100BF00BF00BF30BD88
:1065F0009480024010B50AB90A2206E0012A01D1AE
:10660000002202E0022A00D10B22052860D2DFE836
:1066100000F0031A313C4E00102908D249002D4BDE
:106620001B6C02FA01F423432A4C23640AE00F296D
:1066300008D910394900274B5B6C02FA01F4234357
:10664000244C636444E0102908D24900214B9B6C20
:1066500002FA01F423431F4CA3640AE00F2908D96E
:10666000103949001B4BDB6C02FA01F42343194C2F
:10667000E3642DE00E2907D24900164B1B6D02FA88
:1066800001F42343134C236522E0192906D1114B51
:10669000DB6D43EA82430F4CE36507E01A2905D11D
:1066A0000C4BDB6D43EA02530A4CE36510E01C29F6
:1066B00006D1084B5B6E43EA0263064C636607E053
:1066C0001D2905D1034B5B6E43EA8263014C63666F
:1066D00000BF10BD00C0024010B51049002006F0F8
:1066E000E0FF0F49012006F0DCFF0E49022006F012
:1066F000D8FF0D49032006F0D4FF0C49042006F012
:10670000D0FF0B49052006F0CCFF0A49062006F011
:10671000C8FF0949072006F0C4FF10BD1BC10720B0
:1067200023C107202BC1072033C107203BC107200D
:1067300043C107204BC1072053C1072000B587B0D4
:106740000121002003F019FD174803F0ADFDFEF70D
:106750005BFAFEF73BFA1620152114221323CDE92C
:106760000332CDE90510FF20009001900346472237
:1067700046210290452000F0ADFD07F0AFF802F091
:10678000BDF902F05DFE4FF4E131012003F034F871
:106790004FF4E131022003F02FF801220021100410
:1067A000FEF7E6FB07B000BD0095BA0A70B503F02E
:1067B000DCFC00213A20FEF77BFE4FF4FA60FEF786
:1067C00057FB3648006878B102F058FD0AF070F8BF
:1067D00042F21070FEF74CFB01F02CFAFEF782FE3D
:1067E0004FF4FA70FEF744FB052542E02C48007890
:1067F00038B100F07BF8002000F044F929A000F047
:10680000ABF903F0B2FC4FF4FA622AA12AA002F01D
:1068100037FC60B33220FEF72BFB4FF4FA6225A160
:1068200028A002F02DFC10B33220FEF721FB00243B
:1068300018E02748005D302812DB2548005D392824
:106840000EDC2348011913222248FDF7C9FF00205E
:106850002049C8741E48FDF757FEC4B2012070BD20
:10686000601CC4B21A48FDF74FFEA042E1D8681E72
:10687000C5B2002DBADC18A11648FDF721FE084864
:10688000007848B1012000F0FDF814A000F064F990
:106890004FF4FA60FEF7ECFA0020E0E7A4C007200E
:1068A000BAC00720436865636B696E672053494D22
:1068B000310000004F4B000041542B4350494E3FE4
:1068C0000000000041542B514343494400000000A4
:1068D00026CF072015C907204E41000053494D20FF
:1068E00031206E6F7420666F756E640010B50120E4
:1068F00000F004F8002000F0C5F810BD10B5044603
:1069000006F0EEFE0A488078082803D1204606F0FB
:10691000C7FF06E0204606F0A5FF06F06BFF200744
:10692000040E204606F09EFF06F064FF10BD000036
:1069300078CE072010B504460A4840780A490978FD
:10694000884201DD0A2C01D100F0B4F80A2C07D0EE
:10695000204606F011FF04480078401C02490870E8
:1069600010BD000078CE0720B5C0072070B50446E2
:1069700020460BF089FA0546FF2229460A2000F03E
:106980001BF82E20FFF7D6FF28460BF0B5FA064677
:1069900021460BF0F6FB0446064920460BF0F4FABC
:1069A00006460BF071FA0546FF2229460A2000F040
:1069B00003F870BD0000C842FEB507460E461546F6
:1069C0000024022F14D110E0681E012101FA00F00A
:1069D000304008B1012000E00020044604F13001FD
:1069E000C8B2FFF7A7FF681EC5B2002DECD13CE08E
:1069F0005EB9002404E03020FFF79CFF601CC4B2A5
:106A0000AC4232DA0A2CF6D32FE0002414E04EB167
:106A1000B6FBF7F007FB1060C0B20DF80400B6FB40
:106A2000F7F607E0FF2D01D00A2D00D906E000207F
:106A30000DF80400601CC4B2AC42E8DB00BF12E0F9
:106A4000611E1DF80110092904DD611E1DF80110E9
:106A5000373103E0611E1DF801103031C8B2FFF775
:106A600069FF601EC4B2002CEAD1FEBD10B5044619
:106A700003E014F8010BFFF75DFF20780028F8D140
:106A800010BD000010B5044606480078A04208DD9D
:106A9000002005490870054804700549085DFFF7A6
:106AA0002DFF10BD78CE0720B5C00720B4C0072049
:106AB000B6C0072010B50C480078401C0A49087081
:106AC00000200A4908700A48007807490978884276
:106AD00002DC0020044908700649034A1278885CE9
:106AE000FFF70CFF10BD0000B4C00720B5C00720A1
:106AF00078CE0720B6C0072070B505460C4614486E
:106B000044700570022D08DD04F00F00903011492B
:106B1000887004F00F00D030C8706420FEF7A8F928
:106B20000B488078082803D13820FFF7E7FE08E0FB
:106B300007488078042804D106F03AFE2820FFF7A1
:106B4000DDFE0C20FFF7DAFEFFF7D0FE70BD00007F
:106B500078CE0720B6C007200FB42DE9FF5F0FA83D
:106B600003900E9DEBE02C78252C79D16D1C2C78B0
:106B7000302C11DB392C0FDC002608E0A4F13000AA
:106B800006EB860100EB4100C6B26D1C2C78302C60
:106B900003DB392CF2DD00E0FF26582C79D010DC25
:106BA000442C3FD006DC252C74D0422C73D0432CCF
:106BB00021D117E0462C6FD0532C6ED0552CF7D135
:106BC0004FE0662C6AD006DC622C75D0632C0AD0AC
:106BD000642CEDD110E0732C7DD0752C34D0782C42
:106BE000E6D14AE000BF039810F8041BCCB2039032
:106BF0002046FFF79FFE9DE0039830F8041B0FFA34
:106C000081F90390B9F1000F06DAC9F100000FFA1B
:106C100080F92D20FFF78EFE324649460A20FFF705
:106C2000CBFE87E0039850F804AB0390BAF1000F55
:106C300004DACAF1000A2D20FFF77CFE32465146E5
:106C40000A20FFF7B9FE75E0039830F8041B0390A3
:106C500088B2029032460A200299FFF7ADFE69E041
:106C600069E00398006801900398001D0390324684
:106C70000A200199FFF7A0FE5CE0039830F8041B9E
:106C8000039088B20290324610200299FFF794FEDA
:106C900050E005E04AE01FE02DE03EE02CE00BE094
:106CA0000398006801900398001D0390324610205D
:106CB0000199FFF781FE3DE0039830F8041B039033
:106CC00088B20290FF2E00D110263246022002998F
:106CD000FFF772FE2EE021E0039800680190039810
:106CE000001D0390FF2E00D110263246022001998C
:106CF000FFF762FE1EE000BF0398C01D20F00700F2
:106D00000390D0E9007808300390384641460AF0F5
:106D1000B9F80090FFF72AFE0CE000BF039850F886
:106D200004BB03905846FFF7A1FE03E02520FFF7C0
:106D300001FE00BF02E02046FFF7FCFD6D1C287835
:106D400000287FF410AF0390BDE8FF1F5DF814FB2F
:106D50002DE9FE4F3220FEF78BF8DE4800680D2843
:106D60000ED2DFE800F00D070E242B323AB7E9FC13
:106D7000FBFAF900FFF7BAFDD7A1DAA0FFF7ECFEA6
:106D8000A5E1DD4801F082FEFFF7B0FDDA480078AA
:106D9000D9494978D84A9278CDE900210290D6485D
:106DA000C38842790179D5A0FFF7D6FE8FE1FFF7BE
:106DB0009DFDDA49DAA0FFF7CFFE88E1FFF796FDE7
:106DC000DB49DCA0FFF7C8FE81E1FFF78FFDDB4860
:106DD0000168DBA0FFF7C0FE79E10020FDF7C4FEEB
:106DE000DC490860084600680AF02BFB80464FF03B
:106DF0006632D94B0AF08CFB06460022D74B0AF0CC
:106E00002FF904460AF03EF8D549086008460068A4
:106E10000AF08EFE80460022D24B0AF079FB06462D
:106E20004FF06632CC4B0AF01BF904460AF02AF800
:106E3000CD4908603220FEF71BF80120FDF794FED3
:106E4000CA490860084600680AF0FBFA06464FF097
:106E50006632C14B0AF05CFB04460022BF4B0AF0CD
:106E6000FFF880460AF00EF8C1490860084600683D
:106E70000AF05EFE06460022BE4B0AF049FB0446BD
:106E80004FF06632B44B0AF0EBF8804609F0FAFF97
:106E9000B94908600222B949B348006805F0A2FF69
:106EA0000222B749B448006805F09CFFFFF71EFDB9
:106EB0000020FFF7E7FDB149B2A0FFF74DFE01202A
:106EC000FFF7E0FDAE49B3A0FFF746FE6420FDF7F3
:106ED000CFFFFCE0022001F045FE04460AF028FE48
:106EE000B04A03C2B04800680AF0C2FA0446002261
:106EF000AE4B0AF00DFB0646AA480CC8304609F016
:106F0000F3FFA84A03C2A74903C909F0BBFF04461F
:106F10000222A74905F066FFFFF7E8FC0020FFF713
:106F2000B1FDA4A0FFF718FE0120FFF7ABFDA049BB
:106F3000A3A0FFF711FECAE0FFF7D8FC0020FFF77F
:106F4000A1FDA149A1A0FFF707FE0120FFF79AFDCF
:106F5000A248A349026803E076E028E016E003E0D7
:106F6000A0A0FFF7F9FDB2E0FFF7C0FC0020FFF79B
:106F700089FD9FA0FFF7F0FD0120FFF783FDA04BE7
:106F8000A04AA149A1A0FFF7E7FDA0E0FFF7AEFCF2
:106F90000020FFF777FDA049A0A0FFF7DDFD01204D
:106FA000FFF770FDA049A1A0FFF7D6FD8FE00120FB
:106FB000FEF750F9FFF79AFC0020FFF763FD9EA053
:106FC000FFF7CAFD0120FFF75DFD9FA0FFF7C4FD9D
:106FD00000214B20FEF730FA00214B20FEF712FA79
:106FE00040F2DC50FDF744FF4B20FEF749FA8246A1
:106FF000BAF1000F1ED14FF47A70FDF739FF4B2024
:10700000FEF73EFA8246BAF1000F13D1FFF76EFC8D
:107010000020FFF737FD91A0FFF79EFD0120FFF74D
:1070200031FD93A0FFF798FD09F092F900210220AD
:1070300001F0BCFD4FF4FA70FDF71AFF2548006817
:10704000401C2449086042E0FFF750FC0020FFF795
:1070500019FD79A0FFF780FD0120FFF713FD88A03F
:10706000FFF77AFD00214B20FEF7E6F900214B20C7
:10707000FEF7C8F940F2DC50FDF7FAFE4B20FEF7B0
:10708000FFF98246BAF1000F0ED14FF47A70FDF786
:10709000EFFE4B20FEF7F4F98246BAF1000F03D160
:1070A000FFF724FC02F006FE4FF4FA70FDF7E0FE55
:1070B00001207749086000200649086002227549CE
:1070C0000120FEF749F80520FDF7D2FE00BF00BF02
:1070D000BDE8FE8FB0C007204152472E322E322E1F
:1070E000330000004844572053542D3033303120B2
:1070F0000A4657522025730008C607202020202565
:1071000032642F2532642F25640A20202020253266
:10711000643A2532643A25326400000005C907202C
:1071200044657669636520494D45493A0A257300EF
:1071300015C90720434349443A25730070C007200E
:107140004F70657261746F722041504E3A0A257318
:107150000000000000C0072066660A4000FEAF4045
:1071600008C007200000344010C0072004C00720DA
:107170000CC007200000424014C0072018C00720A0
:107180001EC0072042617474203A202530317320DC
:1071900056000000536F6C61723A20253031732025
:1071A0005600000030C507205CC507200000E03F06
:1071B00018C507205261696E2066616C6C00000082
:1071C0002573206D6D0000006AC007205369676E4B
:1071D000616C20516C74793A202573008CC00720B3
:1071E0002EC9072025732C7064703A202531640065
:1071F000734C6F677C704C6F677C724C6F670000DC
:107200009FC007209BC0072097C0072025737C25BF
:10721000737C257300000000E5C807204C617420D2
:107220003A20257300000000F5C807204C6F6E203F
:107230003A202573000000005072657373202620E9
:10724000486F6C6400000000746F2073656E6420EA
:1072500074657374206C6F67000000002B2B2B206B
:1072600054657374206C6F67202B2B2B000000007B
:1072700055706C6F6164696E672E2E2E00000000E1
:10728000746F20636F707920646174610000000086
:10729000ACC0072011E9000070B504460D4609484E
:1072A0000078A0420DDD07484078A84209DD064875
:1072B0000570064804700649095D2944C8B2FFF705
:1072C0001DFB70BD78CE0720B5C00720B4C00720D5
:1072D000B6C007202DE9F05F82460D4616461C46D3
:1072E0000AAF97E8800B294880F803A00571467122
:1072F0008471C77180F8088080F8099080F80AB01E
:1073000022490E98C8720F98087310984873FF2C82
:1073100007D0FF2F05D0B8F1FF0F02D0B9F1FF0F52
:1073200003D104201949887012E008201749887099
:1073300001212046FEF766F801213846FEF762F883
:1073400001214046FEF75EF801214846FEF75AF853
:1073500001215046FEF756F801212846FEF752F863
:1073600001213046FEF74EF801215846FEF74AF853
:1073700001210E98FEF746F801210F98FEF742F81A
:1073800001211098FEF73EF8BDE8F09F78CE072067
:1073900010B50224C4E040F6B83270A170A001F02C
:1073A0006FFE00286FD03220FDF762FD6EA171489C
:1073B000FDF774F8002830D06FA17248FDF76EF821
:1073C00018B16DA0704908601DE070A16D48FDF70F
:1073D00065F818B16DA06C49086014E06DA16948AA
:1073E000FDF75CF818B16BA0674908600BE06AA173
:1073F0006448FDF753F818B167A06349086002E0DC
:107400005DA0614908606848007820B1FFF76EFA16
:1074100066A0FFF7A1FB012010BD69A15548FDF74B
:107420003DF800281DD068A15648FDF737F810B187
:1074300065A05549086068A15248FDF72FF818B1BA
:1074400065A05149086002E067A04F4908605648AE
:10745000007820B1FFF74AFA67A0FFF77DFB012013
:10746000DAE76AA14348FDF719F868B14AA046492E
:1074700008604D48007820B1FFF738FA65A0FFF7A3
:107480006BFB0120C8E749E066A13A48FDF706F822
:1074900060B166A03C4908604348007820B1FFF71E
:1074A00025FA64A0FFF758FB0120B5E765A1314834
:1074B000FCF7F4FF60B165A0334908603A480078F2
:1074C00020B1FFF713FA64A0FFF746FB0120A3E702
:1074D00067A12848FCF7E2FF60B166A02A4908606E
:1074E0003148007820B1FFF701FA64A0FFF734FBC0
:1074F000012091E766A0244908602B48007868B114
:10750000FFF7F4F963A0FFF727FB4FF4FA60FDF7EC
:10751000AFFCFFF7EBF964A0FFF71EFB601E84B21F
:10752000002C3FF738AF5AA0174908601E48007872
:1075300088B1FFF7DBF960A0FFF70EFB4FF47A701C
:10754000FDF796FCFFF7D2F957A0FFF705FB4FF4C4
:10755000FA60FDF78DFC00205EE700004F4B000055
:1075600041542B5153504E00566F6461666F6E65E7
:107570000000000026CF07206D326D6973616665DB
:1075800000000000A1C9072070C00720494F542EF9
:10759000434F4D00777777006D326D2E736B796DA9
:1075A00065742E636F6D0000BAC007204F7065725E
:1075B00061746F723A0A566F6461666F6E6500009F
:1075C00061697274656C000061697274656C696FE1
:1075D000742E636F6D00000041495254454C494F71
:1075E000542E434F4D00000061697274656C6770E2
:1075F00072732E636F6D00004F70657261746F72ED
:107600003A0A41697274656C000000004964656162
:10761000000000004F70657261746F723A0A49642D
:107620006561000042534E4C0000000062736E6CB6
:107630006E6574004F70657261746F723A0A4253DE
:107640004E4C0000494F5455524C0000494F545580
:10765000524C2E434F4D00004F70657261746F7233
:107660003A0A494F5455524C2E434F4D00000000EA
:107670004A696F004A696F6E657400004F706572E9
:1076800061746F723A0A4A696F2034470000000043
:107690004E410000415420726573706F6E73200A72
:1076A000206661696C7300004F70657261746F725F
:1076B0003A0A4E41000000007265747279200A2077
:1076C0006661696C7300000070B510212548FDF7F4
:1076D0003EF8052541E041F2707223A123A001F09C
:1076E000CFFC002837D03220FDF7C2FB00242DE06C
:1076F0002048005D302827DB1E48005D392823DC48
:107700001C4801190F221748FDF76AF80020154997
:10771000C8731848FCF7F8FE84B21748007888B19F
:10772000FFF7E4F80020FFF7ADF914A0FFF714FA13
:107730000120FFF7A7F90B4914A0FFF70DFAC820A5
:10774000FDF796FB012070BD601C84B20948FCF770
:10775000DBFEA042CCD8681E85B2002DBBDC002029
:10776000F1E7000005C907204F4B000041542B47AB
:10777000534E000026CF0720BAC007204465766923
:10778000636520494D45493A00000000257300001B
:107790007FB50026002500240F2693E140F6B8327D
:1077A000D7A1D8A001F06CFC00287DD00A20FDF7FD
:1077B0005FFBD6A1D648FCF761FED6490860D3A18D
:1077C0000020FCF75BFED3490860D3A1D1480068D4
:1077D000FCF754FECF49086008460168CF48FCF723
:1077E0006FFECC48CEA10268022002F03FF8CB4ADF
:1077F000D2A1022002F03AF800250AE0C54800684C
:10780000405D303804EB840100EB410084B2681C19
:1078100085B2C0480068FCF777FEA842EED8632C1A
:1078200033D1CFA1D148FCF74BFED148007878B1D5
:10783000FFF75CF80020FFF725F9B849CDA0FFF766
:107840008BF90120FFF71EF9C849CEA0FFF784F994
:10785000CD4801F01BF94FF40071CC48FCF777FFDD
:10786000C9484078C8498978C74AD288CDE9020416
:10787000CDE90021C44843790279C549C348FCF7E2
:10788000BFFCC4A1C148FDF7A5FA002C35D1C3A1A6
:10789000B648FCF715FEB648007888B1FFF726F821
:1078A0000020FFF7EFF800E00AE19C49B1A0FFF7E4
:1078B00053F90120FFF7E6F8AC49B2A0FFF74CF905
:1078C000B14801F0E3F84FF40071B048FCF73FFF16
:1078D000AD484078AC498978AB4AD288CDE90204FA
:1078E000CDE90021A84843790279AEA1A748FCF769
:1078F00087FCA8A1A548FDF76DFA012C35D1052C10
:1079000033DCA6A19948FCF7DBFD9948007878B1F3
:10791000FEF7ECFF0020FFF7B5F8804995A0FFF7D0
:107920001BF90120FFF7AEF8904996A0FFF714F974
:10793000954801F0ABF84FF400719448FCF707FF4D
:1079400091484078904989788F4AD288CDE90204DD
:10795000CDE900218C484379027992A18B48FCF74C
:107960004FFC8CA18948FDF735FA1F2C19D19DA138
:107970007E48FCF7A5FD7E48007878B1FEF7B6FF9B
:107980000020FFF77FF865497AA0FFF7E5F80120AE
:10799000FFF778F875497BA0FFF7DEF8012004B007
:1079A00070BD062C35DB092C33DC91A16F48FCF748
:1079B00087FD6F48007878B1FEF798FF0020FFF749
:1079C00061F856496BA0FFF7C7F80120FFF75AF896
:1079D00066496CA0FFF7C0F86B4801F057F84FF408
:1079E00000716A48FCF7B3FE674841788078664AC0
:1079F000D28801AB13C300926348437902797F496F
:107A00006248FCF7FDFB63A16048FDF7E3F9012044
:107A1000C5E70A2C1ADB0E2C18DC39A15348FCF7F9
:107A20004FFD5348007878B1FEF760FF0020FFF764
:107A300029F83A494FA0FFF78FF80120FFF722F805
:107A40004A4950A0FFF788F80120A8E70F2C1ADB5D
:107A5000132C18DC6AA14548FCF732FD4448007835
:107A600078B1FEF743FF0020FFF70CF82B4941A047
:107A7000FFF772F80120FFF705F83C4941A0FFF736
:107A80006BF801208BE7142C1ADB1E2C18DC55A197
:107A90003648FCF715FD3648007878B1FEF726FF2A
:107AA0000020FEF7EFFF1D4932A0FFF755F8012037
:107AB000FEF7E8FF2D4933A0FFF74EF801206EE7EF
:107AC000701E86B2002E3FF769AE2948007868B173
:107AD000FEF70CFF0020FEF7D5FF4BA0FFF73CF8A8
:107AE0000120FEF7CFFF4CA0FFF736F84DA11F484D
:107AF000FCF7E6FC07204E49086000204FE7000035
:107B00004F4B000041542B43535100003A200000DA
:107B100026CF072074C007202C0000006AC0072071
:107B20005369676E616C20537472656E6774682068
:107B300056616C75653A2025730D0A0042756666BC
:107B40006572205369676E616C20537472656E674D
:107B500074682056616C75653A2025730D0A000023
:107B60006E6F7420417661696C0000002EC9072099
:107B7000BAC007205369676E616C20516C74793A02
:107B8000202573002573000008C60720B0C9072010
:107B9000D00F02006572722E74787400706F6F726D
:107BA000000000005B253032642F253032642F2521
:107BB000643B253032643A253032645D3A5B45528D
:107BC000524F525D3A5369676E616C2073747265EF
:107BD0006E676820697320506F6F723A2025643B8E
:107BE00000000000457863656C6C656E74000000F1
:107BF0004D617267696E616C0000000064100200E4
:107C0000474F4F44000000005369676E616C20517C
:107C10006C74793A000000004E6F206E7477726BBE
:107C2000000000006E6F206E7477726B0000000021
:107C300088C0072070B500244FF4967226A129A0B1
:107C400001F01EFA30B94FF4967229A125A001F077
:107C500017FA40B129A1012002F01EF84FF47A7101
:107C600029A002F045FB36E00A2532E027480078DB
:107C700038B1FEF73BFE0020FEF704FF24A0FEF71C
:107C80006BFF02F072FA4FF496721FA124A001F06C
:107C9000F7F998B14FF496721BA122A001F0F0F908
:107CA00060B11A48007840B10120FEF7EBFE1FA03A
:107CB000FEF752FF6420FDF7DBF801243CB1FFF72B
:107CC00003FD04460CB1012070BD0020FCE7681ED6
:107CD000C5B2002DCADCC7E72B434D45453A2031DC
:107CE0000000000041542B434D45453F000000007B
:107CF0002B434D45453A20300000000041542B43B2
:107D00004D45453D320D00004F4B0000BAC00720E5
:107D10006D6F64656D20696E69742E2E0000000021
:107D20004154000041544531000000004F4B2100F8
:107D300010B5074C07A1012001F0AEFF40F6B831A5
:107D400007A002F0D5FA204602F082F910BD00002B
:107D500026CF072041542B43434C4B3F0D000000DE
:107D60004F4B000010B52248007838B1FEF7BEFD39
:107D70000020FEF787FE1FA0FEF7EEFE02F0F5F9E9
:107D8000022430E043F698221EA11FA001F078F9EA
:107D900070B11748007848B10120FEF773FE1DA0AE
:107DA000FEF7DAFE40F6B830FDF762F8012010BDAC
:107DB0000320FDF769F843F6982212A118A001F0FC
:107DC0005FF970B10A48007848B10120FEF75AFE09
:107DD00016A0FEF7C1FE4FF4FA50FDF749F8012056
:107DE000E5E7601EC4B2002CCCDC0020DFE7000019
:107DF000BAC0072046756E74696F6E616C697479DC
:107E00002E2E2E004F4B000041542B4346554E3D25
:107E1000300000002B204D696E696D756D202B00C0
:107E200041542B4346554E3D310000002B204675F2
:107E30006C6C206D6F6465202B0000002DE9FC4701
:107E400081460D461646B046002703E0002008F89C
:107E5000010B7F1C1D4800686843B842F6D80A2011
:107E6000282180232A46CDE9001018480168484699
:107E7000FDF710FA1F2316484FF400210268154839
:107E80000068FEF79BFA0446ECB91048006800FB56
:107E900005F332464FF480110F480068FEF78EFA62
:107EA000044684B90D230A484FF4801102680A4839
:107EB0000068FEF783FA04462CB905480068007B89
:107EC00008B16FF009042046BDE8FC8760C60720B2
:107ED00050C607203CC6072038C607202DE9FC41C4
:107EE00006460D4617460A202A2100232A46CDE9D8
:107EF0000010184801683046FDF7CCF91F231648DA
:107F00004FF40021026815480068FEF757FA04464E
:107F1000ECB91048006800FB05F33A464FF4002125
:107F20000E480068FEF74AFA044684B90D230A4851
:107F30004FF4801102680A480068FEF73FFA0446D1
:107F40002CB905480068007B08B16FF00904204691
:107F5000BDE8FC8160C6072050C607203CC607204C
:107F600038C607201CB507480068012100231A46BF
:107F7000CDE90010FE21A120FDF7B4FF0446204604
:107F80001CBD000050C607201CB50620032180231D
:107F90000022CDE9001011461046FDF77BF91F23A2
:107FA00013484FF40021026812480068FEF706FAF1
:107FB0000446DCB912230E484FF4801102680E48C3
:107FC0000068FEF7FBF9044684B90D2308484FF416
:107FD0008011026808480068FEF7F0F904462CB9E1
:107FE00003480068007B08B16FF0090420461CBDFF
:107FF00050C607203CC6072038C607202DE9F041AF
:1080000005460E461746FFF7ADFF4FF050080AE051
:1080100000F022F9044604B908E0FFF7B5FFA8F123
:10802000010000F0FF08B8F1000FF1D100BF14B15A
:108030002046BDE8F0812946304600F0C5F80446E8
:10804000044928680860384600F006F804462046CF
:10805000EFE7000060C607207CB504460620122129
:1080600080230022CDE9001011461046FDF712F9D9
:108070001F231C484FF4002102681B480068FEF7CC
:108080009DF905465DBB242316484FF48011026814
:1080900016480068FEF792F9054605BB74B1002644
:1080A0000AE010480068007804F8010B0D480068E9
:1080B000401C0C490860761C242EF2D30D2309487D
:1080C0004FF48011026809480068FEF777F9054609
:1080D0002DB904480068007B08B16FF009052846F7
:1080E0007CBD000050C607203CC6072038C60720CC
:1080F00070B53248046800256078022802D06FF01D
:108100000A0070BD2078044448E06078042802D05A
:1081100005283FD10CE06079082808D1A07906280D
:1081200005D1E079502802D101252078044434E0BB
:10813000E07800F00300022829D1A07800F0800048
:1081400090B1201D00F04AFDA17801F07F010122CD
:1081500042EAC11141F4805141EA004018490968DE
:1081600008602078044414E0201D00F037FDA17859
:1081700001F07F01012242EAC11141F4006141EAAC
:1081800000401049096808602078044401E0207824
:10819000044402E02078044400BF00BF07480068A0
:1081A000801C00F01BFD054909680844A042ACD1C1
:1081B0000DB10020A5E76FF00B00A2E750C6072025
:1081C00038C607203CC607207CB505460E460A2067
:1081D000252180230022CDE9001011461046FDF72D
:1081E00059F81F2319484FF4002102681848006805
:1081F000FEF7E4F804463CBB08231448590402681F
:1082000014480068FEF7DAF80446ECB925B10F48C7
:10821000006800F0D3FC28602EB10C480068001DF7
:1082200000F0CCFC30600D2308484FF48011026848
:1082300008480068FEF7C2F804462CB903480068F5
:10824000007B08B16FF0090420467CBD50C60720B2
:108250003CC6072038C607201CB506200021012394
:108260000A46CDE900100846FDF714F81F230E4812
:108270004FF4002102680D480068FEF79FF804469D
:1082800084B90D2308484FF480110268084800683B
:10829000FEF794F804462CB903480068007B08B147
:1082A0006FF0090420461CBD50C607203CC60720BD
:1082B00038C6072010B501F058FF04A1012001F0D5
:1082C000EBFC054905A002F013F810BD41542B51F9
:1082D000494143543D310D00C0D401004F4B0000D3
:1082E00010B56420FCF7C4FD04A1012001F0D4FC0A
:1082F0004FF47A7104A001F0FBFF10BD41542B51E3
:10830000504F57443D300D004F4B000070B501F009
:10831000A7F9022506E006F001F9044604B103E0DE
:10832000012070BD002DF6DC00BF01F01EFF002C07
:108330002CD02348007880B1FEF7D8FA0020FEF751
:10834000A1FB20A0FEF708FC0120FEF79BFB21A06B
:10835000FEF702FCC820FCF78BFD2248006805F000
:10836000FBFF044601F001FF3CB300F071F81D482B
:108370000068FCF7F3FF064600F03CFCC820FCF761
:1083800077FDFDF72BF8FFF795FFCAE70C4800785B
:1083900088B1FEF7ABFA0020FEF774FB09A0FEF7E8
:1083A000DBFB0120FEF76EFB0FA0FEF7D5FB4FF4C1
:1083B000FA60FCF75DFD0120B3E70020B1E70000A3
:1083C000BAC007204D6F64656D20456E67696E65A4
:1083D00000000000496E697469616C697A65642007
:1083E0002121000070C007204572726F7220436F18
:1083F0006D6D2E2E2021210070B500213520FDF756
:1084000057F84FF4FA50FCF733FD0DA1012001F0AD
:1084100043FC40F6B8310DA001F06AFF044664B990
:1084200000F02CFF08F044FA4FF4FA50FCF720FD5E
:10843000FFF76CFF0546284670BD2046FCE70000AC
:1084400041542B5153434C4B3D300D004F4B0000DA
:1084500010B501F08AFE05A1012001F01DFC49F6CE
:10846000404106A001F044FF10BD000041542B51D3
:108470004944454143543D310D0000004F4B00003D
:1084800010B509A1012001F007FC40F6B83109A0A0
:1084900001F02EFF0446C820FCF7EAFC1CB10121C4
:1084A0003520FDF705F810BD41542B5153434C4B7B
:1084B0003D310D004F4B000010B50021062002F0A9
:1084C0001DF80221112002F019F80521132002F0F5
:1084D00015F8112002F001F810BD000070B5064635
:1084E000FCF70EFCA0B91A48007820B1FEF7FEF99F
:1084F00018A0FEF731FB022507E01B48006805F0D5
:108500002BFF00B103E0002070BD002DF5DC0FE073
:108510001648FDF79DFC04463220FCF7A9FC2CB15F
:10852000502211463046FDF781F904462046EBE71C
:108530000E48FDF78DFC04463220FCF799FC2CB167
:10854000502211463046FDF771F904462046DBE71C
:10855000BAC0072049502061737369676E20466175
:10856000696C65640000000070C007203DC90720E9
:1085700070B58AB0002402F08FF800F0B9FB4FF418
:1085800000719B48FCF7E3F89A489B499B4A9C4B37
:10859000CDE90632CDE908109A4B9B4840789A49BC
:1085A0008978994AD288CDE90403CDE90221964819
:1085B00040799549097995A3974ACDE900109749E3
:1085C0008B48FBF71DFE96A18948FCF703FC01F0E0
:1085D00063FF964908706420FCF74AFC874802F064
:1085E00041F8934908609348006840B98F48007883
:1085F00028B9914800789149097888427ED19048FD
:10860000006809F095FA05468E4A8F4B09F07EF80E
:1086100074D201F025F8FFF7EFFE84490870084690
:10862000007800286BD005F059F902240BE0874848
:10863000006805F091FE7D4908700846007800B199
:1086400003E0601EC4B2002CF1DC00BF7748007864
:10865000C8B16748FFF742FF7D49087008460078B7
:10866000022807D008460078052803D0084600787D
:10867000002833D1FCF75CFB80B35D48FFF72EFF89
:10868000734908702AE001F070FD00F0F7FD08F072
:108690000FF94FF4FA50FCF7EBFBFFF737FE6C498C
:1086A00008700846007828B15148FFF717FF68495D
:1086B000087013E0FEF71AF90020FEF7E3F965A051
:1086C000FEF74AFA0120FEF7DDF967A0FEF744FA4B
:1086D000C820FCF7CDFB05205D4908705C48007898
:1086E000022815D05A480078052811D0584800783B
:1086F00070B15F48006809280AD001E065E05FE0DA
:108700005B4800680E2803D059480068062836D117
:1087100058A13748FCF75EFB4FF400715848FCF74E
:1087200016F8394800F0B2F95648007808B3FEF759
:10873000DDF80020FEF7A6F953A0FEF70DFA0120A0
:10874000FEF7A0F94A48016853A0FEF705FA4FF476
:108750007A70FCF78DFB00F091FDFEF7C7F8002062
:10876000FEF790F94FA0FEF7F7F94FF47A70FCF797
:108770007FFB00203649087001204D4908603448CD
:10878000007810B92948007860B1FCF7B9FA48B10F
:1087900000F02CF908B1FFF7CBFAFEF7F9FF6420DF
:1087A000FCF766FB00F012FC07F064F8FFF750FEE0
:1087B0006420FCF75DFBFFF763FE00F049FF04E077
:1087C00005201A49087000F043FF1B4800781B4938
:1087D0000978884203D115480078052806D125A1DB
:1087E0000348FCF7F7FA0120314908600AB070BD70
:1087F000B6D007206AC0072020C5072010C5072073
:1088000018C007201EC0072008C607204152472E67
:10881000322E322E3300000005C9072064110200F9
:10882000706472762E7478740000000010C6072001
:10883000E0C5072014C6072095C0072096C0072072
:1088400008C0072048E17A14AE47FD3F70C00720FA
:108850007EC007205044502041637469766174697A
:108860006F6E2E2E000000006661696C656400006A
:1088700088C00720706C6F672E7478740000000049
:10888000B0C90720BAC00720506F737420666169B1
:108890006C65642021000000457272203A20256436
:1088A000000000004D6F6453687444776E00000050
:1088B000D4C5072070B505460026FEF717F8042436
:1088C00009E0F2B2E1B2E8B204F0FEFE761C32201A
:1088D000FCF7CEFA641C0C2CF3DB70BD10B5002441
:1088E0002648007838B1FEF701F80020FEF7CAF8F4
:1088F00023A0FEF731F90F2430E001F036FCC82048
:10890000FCF7B6FA4FF4967222A125A000F0B8FB4E
:1089100068B11A48007840B10120FEF7B3F823A0EF
:10892000FEF71AF96420FCF7A3FA012010BD4FF4FA
:10893000967222A11AA000F0A3FB68B10F4800783C
:1089400040B10120FEF79EF81FA0FEF705F9642054
:10895000FCF78EFA0120E9E7601EC4B2002CCCDCE3
:108960000648007828B10120FEF78CF819A0FEF720
:10897000F3F806201C4908600020D7E7BAC007209A
:108980004E7477726B207365726368696E672E2E02
:10899000000000002B435245473A20302C350000A0
:1089A00041542B435245473F00000000726F616DF8
:1089B000696E672C206F6B21000000002B4352452D
:1089C000473A20302C310000686F6D652C206F6BAA
:1089D00021000000526567204E6574776F726B202E
:1089E000457272210000000088C0072010B501F018
:1089F000BCFB0CA1012001F04FF940F6B8310CA0EE
:108A000001F076FC58B90DA1012001F045F940F6BE
:108A1000B8310DA001F06CFCFFF7A4F910BD0120E6
:108A2000FCE7000041542B43545A553F0D00000011
:108A30002B43545A553A20330000000041542B4335
:108A4000545A553D330D00004F4B000010B5FDF753
:108A5000ADFE04460CB1012010BD0020FCE7000073
:108A6000014A107470470000004002400120024992
:108A700008700220087370470040024002490978DC
:108A80000143014A11707047004002400D4991F8BE
:108A9000201001700B4991F824104170094991F898
:108AA00028108170074991F83010C170054991F87C
:108AB0002C100171034991F8381041710149898FD7
:108AC000C1807047004002400146044800780840D9
:108AD00008B1012070470020FCE700000040024080
:108AE00000B50120FFF7F0FF10B10120FFF7C6FF2E
:108AF00001200149086000BD8CC1072010B500208D
:108B00001049086001214802FCF7AAF80E480078D5
:108B100000F0100038B10C48007840F010000A490D
:108B20005C3981F85C00002007495C3908740870E2
:108B30000872087308640846007A40F00100087261
:108B400010BD00008CC107205C4002400448007842
:108B500040F00100024908700020087370470000CF
:108B6000004002400146024A02EB81021068704751
:108B70004440024001780C4A11704178121D117076
:108B80008178121D1170C178074A10321170017975
:108B9000121F11704179044A18321170C188024ABB
:108BA000203A91877047000020400240024A02EBC1
:108BB00080021160704700004440024008B5014641
:108BC000C8788DF8000088788DF8010048788DF815
:108BD000020008788DF80300009808BD08B501462A
:108BE00008788DF8000048788DF80100BDF8000085
:108BF00008BD000010B52448007838B1FDF776FEB6
:108C00000020FDF73FFF21A0FDF7A6FF22A10120D4
:108C100001F042F840F6B83125A001F069FB40F6BA
:108C2000B830FCF725F9052419E001F09EFA21A1DE
:108C3000012001F031F840F6B83123A001F058FBD3
:108C400038B1244807F03EFE2348006808B10120EF
:108C500010BD4FF4FA70FCF70BF9601EC4B2002C83
:108C6000E3DC1EA11E48FBF72BFC1CA11D48FBF7F3
:108C700027FC1AA11C48FBF723FC18A11B48FBF793
:108C80001FFC0020E4E70000BAC0072052656164C1
:108C9000204E4D45412E2E0041542B5147505343F9
:108CA00046473D226E6D6561737263222C310D0063
:108CB0004F4B000041542B51475053474E4D4541B7
:108CC0003D22474741220D002B51475053474E4DFF
:108CD00045413A0026CF072078C007204E410000CA
:108CE000E5C80720F5C807205FC0072067C0072038
:108CF0002DE9F0470020FBF737FF3A4908600846A6
:108D0000006808F09EFB80464FF06632364B08F054
:108D1000FFFB06460022354B08F0A2F9044608F096
:108D2000B1F8334908600846006808F001FF0446BE
:108D3000304A314B08F0EAFC02D230482C49086036
:108D40002B48006808F0F4FE804600222C4B08F007
:108D5000DFFB06464FF06632234B08F081F90446EC
:108D600008F090F8274908601E20FCF781F80120E0
:108D7000FBF7FAFE244908600846006808F061FB2A
:108D800080464FF06632184B08F0C2FB06460022C0
:108D9000164B08F065F9044608F074F81B490860A2
:108DA0000846006808F0C4FE06460022184B08F08A
:108DB000AFFB04464FF066320B4B08F051F980468A
:108DC00008F060F813490860022213490D48006852
:108DD00004F008F8022211490E48006804F002F875
:108DE000BDE8F08700C0072066660A4000FEAF407D
:108DF00008C007200AD7A3703D0A0340EC51184071
:108E00000000344010C0072004C007200CC0072019
:108E100000003E4014C0072018C007201EC00720D5
:108E20002DE9F041074600265BE02E4800683844F3
:108E3000B04209D800202C4908702A490860022055
:108E40002A490870BDE8F08128480078042808D134
:108E5000002027490870274800210180002023496D
:108E600008702548FBF750FB0446002C35D0012044
:108E7000FBF7FEFF761C2048FBF746FBA0422CD1F7
:108E8000002525E001221B49491C481EFBF7EBFB8E
:108E90001948405D17494870022218A11548FBF790
:108EA00052FB98B912480078401CC1B210480170BA
:108EB0000D480078801C814208D100200A490870C2
:108EC00008490860012009490870BBE7681C85B2A1
:108ED000A542D7D30020064908700120FBF7C8FF40
:108EE000761CA2E784C007207DC007207CC0072035
:108EF000AAC00720A8C0072026CF07200D0A00001F
:108F000010B50021064A116051600220FFF74EFEA5
:108F10000020044908600021034A1160516010BD1F
:108F200028C507205CC5072030C5072010B501F013
:108F30001CF912A1012000F0AFFE40F6B83112A0DA
:108F400001F0D6F911A1012000F0A6FE40F6B831DB
:108F50000DA001F0CDF913A1012000F09DFE40F617
:108F6000B83109A001F0C4F914A1012000F094FE69
:108F700040F6B83104A001F0BBF910BD41542B43B9
:108F80004D47463D310D0A004F4B000041542B43E5
:108F9000534D503D31372C3136372C302C300D0AA3
:108FA0000000000041542B43504D533D22534D22AD
:108FB0002C22534D222C22534D220D0041542B4381
:108FC0005343533D2247534D220D000010B501F08D
:108FD000CCF81AA1012000F05FFE40F6B8311AA0CB
:108FE00001F086F94FF4FA70FBF742FF17A1012058
:108FF00000F052FE40F6B83113A001F079F94FF4B9
:10900000FA70FBF735FF17A1012000F045FE40F68E
:10901000B8310DA001F06CF94FF4FA70FBF728FF9E
:1090200013A1012000F038FE40F6B83106A001F08F
:109030005FF94FF4FA70FBF71BFF10BD41542B434F
:109040004D47463D310D00004F4B000041542B432E
:10905000504D533D22534D222C22534D222C22534E
:109060004D220D0041542B435344483D310D000027
:1090700041542B435343533D2247534D220D00008F
:1090800070B504460D4616462146012000F004FE48
:109090000D21012000F06AFD3146284601F028F933
:1090A00070BD00007FB500244F48006800287DD0C7
:1090B0004E48006808F03CFD05464D4A4D4B08F00F
:1090C00025FB73D200F0CCFAFFF796F94A490870F5
:1090D0000846007800286AD004F000FC02240BE067
:1090E0004648006805F038F943490870084600789A
:1090F00000B103E0601EC4B2002CF1DC00BF3E48AA
:10910000007820B107F030F83D49087041E000F0E8
:10911000B5F807F0CDFB4FF4FA50FBF7A9FEFFF7C7
:10912000F5F8374908700846007820B107F01CF8B8
:10913000334908702DE0FDF7D9FB0020FDF7A2FCB4
:1091400030A0FDF709FD0120FDF79CFC32A0FDF7E2
:1091500003FDC820FBF78CFE4FF400713048FBF78D
:10916000F6FA3048FFF792FC2F4803682D48417803
:1091700080782C4AD28801AD0BC5009229484379EA
:1091800002792AA12648FBF73BF838A12448FBF7CF
:1091900021FE3848007838490978884202D11848B9
:1091A000007878B9FBF7ACFD60B101E01AE017E098
:1091B000FFF71CFC08B1FEF7BBFDFEF7E9FA6420DF
:1091C000FBF756FEFFF702FF06F054FBFFF740F9EE
:1091D0006420FBF74DFEFFF753F900F039FA01E088
:1091E00000F036FA7FBD0000D4C5072008C0072074
:1091F00048E17A14AE47FD3F10C6072070C0072033
:109200007EC00720504450204163746976617469C0
:109210006F6E2E2E000000006661696C65640000B0
:10922000B0C9072008C6072088C007205B25303258
:10923000642F253032642F25643B253032643A2573
:109240003032645D3A5B4552524F525D3A4D455360
:10925000534147452044455441494C3A2025643BFD
:10926000504450206661696C65643B006572722EE3
:109270007478740095C0072096C0072010B5FFF7DA
:109280002FF801214220FCF713F94FF47A70FBF715
:10929000EFFD10BD70B505460C4607480570074840
:1092A0000470012104480078FCF7ACF80121034860
:1092B0000078FCF7A7F870BD04C6072005C6072094
:1092C00070B505460024002117480078FCF79AF88D
:1092D000002618E00120FBF7E3FD01211348007888
:1092E000FCF7E6F80120FBF7DBFD6006040E0E48F4
:1092F0000078FCF7C5F8044300210C480078FCF71F
:10930000D7F8701CC6B2082EE4DB012106480078AD
:10931000FCF778F8012D02D107F04AFA01E007F0D6
:109320006BFA204670BD000004C6072005C6072062
:1093300010B5002110480078FCF7BAF801210F4859
:109340000078FCF7B5F80120FBF7AAFD01210A48D7
:109350000078FCF7ADF80120FBF7A2FD00210748DB
:109360000078FCF7A5F80120FBF79AFD00210248E0
:109370000078FCF79DF810BD05C6072004C607203D
:1093800010B500210E480078FCF792F80120FBF799
:1093900087FD00210B480078FCF78AF80120FBF7D5
:1093A0007FFD012106480078FCF782F80120FBF7D9
:1093B00077FD012103480078FCF77AF810BD000022
:1093C00005C6072004C6072070B5044600250BE03B
:1093D000C4F3C01107480078FCF76AF807F0F8F901
:1093E0006006040E681CC5B2082DF1DB07F0F0F929
:1093F00070BD000004C6072010B5044604200549CE
:10940000087000BF2046FFF70BFD024800780028D7
:10941000F8D010BD7CC0072010B507480068401C7C
:10942000054908600548006810B104480068804795
:1094300002F010FC10BD0000CCC50720D0C50720ED
:1094400002484FF0E02148617047000004870100A6
:1094500007204FF0E0210861704700204FF0E02125
:109460000861704720204549086000BF43480068F4
:1094700000F040000028F9D0032040499C390860E2
:1094800000203F49C1F80C013E483D498431086045
:10949000AA203B498C3108605520086001203849DA
:1094A00080310860AA2036498C3108605520344943
:1094B000C1F88C0000BF32488830006800F080603E
:1094C0000028F8D003202E4980310860AA202C49BA
:1094D000C1F88C0055202A498C31086000BF28480B
:1094E0008830006800F040700028F8D0232024491C
:1094F000A4310860AA202249C1F8AC0055202049B7
:10950000AC31086001201E49A0310860AA201C4926
:10951000AC31086055201A49C1F8AC0000BF1848AA
:10952000A830006800F480600028F8D003201449B7
:10953000A0310860AA201249C1F8AC00552010499A
:10954000AC31086000BF0E48A830006800F44070DD
:109550000028F8D000200949083108600849C1F8FE
:10956000AC0109480649C43108600020034928318C
:10957000086043F23A00024908607047A0C10F40FA
:1095800000C00F40630005001A93008230B500BF91
:109590002A4B9B68D8B2401000F0070003281FD167
:1095A000264B197D01F09E0323B1254B1960234BF7
:1095B0001A7830BD01F00103002B3CD01F4B1B7803
:1095C000204C214D2D6863551F4B1B685B1C1E4CA6
:1095D000236023461B68A02B2DD1002323602AE0A3
:1095E000022811D1154B1C78164B174D2D685C5570
:1095F000154B1B685B1C144C236023461B68A02B77
:1096000019D10023236016E0062806D10C4B1B68F5
:1096100043F480730A4C23600DE001280BD1074B03
:10962000197D01F020031BB10123084C237002E0D7
:109630000023064C237000BFBBE7000000C00040C1
:1096400090C1072086CE0720A0C107209CC107201B
:10965000002002490872062048607047000001405F
:10966000072002490872486070470000000001406E
:1096700030B500BF2A4B9B68D8B2401000F00700FD
:1096800003281FD1264B197D01F09E0323B1254BE2
:109690001960234B1A7830BD01F00103002B3CD038
:1096A0001F4B1B78204C214D2D6863551F4B1B68A9
:1096B0005B1C1E4C236023461B68A02B2DD100236E
:1096C00023602AE0022811D1154B1C78164B174D48
:1096D0002D685C55154B1B685B1C144C236023469E
:1096E0001B68A02B19D10023236016E0062806D1A1
:1096F0000C4B1B6843F480730A4C23600DE0012877
:109700000BD1074B197D01F020031BB10123084C3D
:10971000237002E00023064C237000BFBBE700006B
:109720000000014094C1072026CF0720A4C10720D4
:109730009DC1072030B500BF2A4B9B68D8B24010AE
:1097400000F0070003281FD1264B197D01F09E036E
:1097500023B1254B1960234B1A7830BD01F001036A
:10976000002B3CD01F4B1B78204C214D2D6863559E
:109770001F4B1B685B1C1E4C236023461B68A02BE1
:109780002DD1002323602AE0022811D1154B1C782B
:10979000164B174D2D685C55154B1B685B1C144C04
:1097A000236023461B68A02B19D10023236016E0F9
:1097B000062806D10C4B1B6843F480730A4C2360C7
:1097C0000DE001280BD1074B197D01F020031BB1DF
:1097D0000123084C237002E00023064C237000BFD5
:1097E000BBE7000000C0094098C10720C6CF072092
:1097F000A8C107209EC1072070B504460D46042C61
:109800002FD2184A02EBC4029178164A12F834009B
:10981000FBF712FE134A02EBC4029178114A02EBE5
:10982000C4025078FBF708FE0F4800680D4901EBB1
:10983000C401CA780121914008430B49C439C1F8D9
:10984000C4000720074901EBC4014968087283205E
:10985000044901EBC401496808732946204600F019
:1098600021F970BD84230100C4C00F400FB42DE95D
:10987000FE4F83460EA802900D9D09E12C78252C01
:1098800072D16D1C2C78302C11DB392C0FDC0026AA
:1098900008E0A4F1300006EB860100EB4100C6B2FF
:1098A0006D1C2C78302C03DB392CF2DD00E0FF2618
:1098B000582C74D010DC442C42D006DC252C6FD000
:1098C000422C6ED0432C22D117E0462C6AD0532C68
:1098D00069D0552CF7D155E0662C72D006DC622C8D
:1098E0007FD0632C0AD0642CEDD111E0732C6AD0A8
:1098F000752C3AD0782CE6D156E000BF029810F8CB
:10990000041BCCB202902146584600F02FF9B9E072
:10991000029830F8041B0FFA81F80290B8F1000F9A
:1099200007DAC8F100000FFA80F82D21584600F040
:109930001DF9334642460A21584600F057F9A1E086
:10994000029850F8049B0290B9F1000F05DAC9F1B2
:1099500000092D21584600F009F933464A460A21EC
:10996000584600F043F98DE08DE0029830F8041B72
:10997000029088B2019033460A215846019A00F0BD
:1099800035F97FE00298006800900298001D02906F
:1099900033460A215846009A00F028F972E013E095
:1099A0006BE02EE03DE05EE0029830F8041B029090
:1099B00088B20190334610215846019A00F016F9FA
:1099C00060E02FE00DE04FE0029800680090029800
:1099D000001D0290334610215846009A00F006F907
:1099E00050E0029830F8041B029088B20190FF2EDC
:1099F00000D11026334602215846019A00F0F6F8AD
:109A000040E00298006800900298001D0290FF2E2E
:109A100000D11026334602215846009A00F0E6F89D
:109A200030E000BF0298C01D20F007000290D0E98E
:109A30000021DDF808C00CF1080C1046CDF808C074
:109A400007F020FA07460021384608F069FA05D2E7
:109A500087F000472D21584600F088F839465846CF
:109A600000F098F80EE000BF029850F804AB0290A6
:109A70005146584600F010F904E02521584600F000
:109A800075F800BF03E02146584600F06FF86D1CE2
:109A9000287800287FF4F2AE0290BDE8FE0F5DF852
:109AA00014FB00002DE9FF4104460F46042C54D25C
:109AB0002B480068C0F3811636B1012E08D0022E63
:109AC00009D0032E0FD10AE02648006885080AE075
